{
  "_format": "hh-sol-artifact-1",
  "contractName": "DutchAuction",
  "sourceName": "contracts/DutchAuction.sol",
  "abi": [
    {
      "inputs": [],
      "stateMutability": "nonpayable",
      "type": "constructor"
    },
    {
      "anonymous": false,
      "inputs": [
        {
          "indexed": true,
          "internalType": "uint256",
          "name": "articleIndex",
          "type": "uint256"
        },
        {
          "indexed": false,
          "internalType": "address",
          "name": "buyer",
          "type": "address"
        },
        {
          "indexed": false,
          "internalType": "uint256",
          "name": "finalPrice",
          "type": "uint256"
        }
      ],
      "name": "ArticleSold",
      "type": "event"
    },
    {
      "anonymous": false,
      "inputs": [],
      "name": "AuctionEnded",
      "type": "event"
    },
    {
      "anonymous": false,
      "inputs": [],
      "name": "AuctionReopened",
      "type": "event"
    },
    {
      "inputs": [
        {
          "internalType": "string",
          "name": "name",
          "type": "string"
        },
        {
          "internalType": "uint256",
          "name": "startingPrice",
          "type": "uint256"
        },
        {
          "internalType": "uint256",
          "name": "reservePrice",
          "type": "uint256"
        },
        {
          "internalType": "uint256",
          "name": "priceDecrement",
          "type": "uint256"
        },
        {
          "internalType": "uint256",
          "name": "timeInterval",
          "type": "uint256"
        }
      ],
      "name": "addArticle",
      "outputs": [],
      "stateMutability": "nonpayable",
      "type": "function"
    },
    {
      "inputs": [
        {
          "internalType": "uint256",
          "name": "",
          "type": "uint256"
        }
      ],
      "name": "articles",
      "outputs": [
        {
          "internalType": "string",
          "name": "name",
          "type": "string"
        },
        {
          "internalType": "uint256",
          "name": "startingPrice",
          "type": "uint256"
        },
        {
          "internalType": "uint256",
          "name": "reservePrice",
          "type": "uint256"
        },
        {
          "internalType": "uint256",
          "name": "priceDecrement",
          "type": "uint256"
        },
        {
          "internalType": "uint256",
          "name": "timeInterval",
          "type": "uint256"
        },
        {
          "internalType": "uint256",
          "name": "startTime",
          "type": "uint256"
        },
        {
          "internalType": "bool",
          "name": "sold",
          "type": "bool"
        },
        {
          "internalType": "address",
          "name": "buyer",
          "type": "address"
        }
      ],
      "stateMutability": "view",
      "type": "function"
    },
    {
      "inputs": [],
      "name": "auctionEnded",
      "outputs": [
        {
          "internalType": "bool",
          "name": "",
          "type": "bool"
        }
      ],
      "stateMutability": "view",
      "type": "function"
    },
    {
      "inputs": [],
      "name": "buy",
      "outputs": [],
      "stateMutability": "payable",
      "type": "function"
    },
    {
      "inputs": [],
      "name": "currentArticleIndex",
      "outputs": [
        {
          "internalType": "uint256",
          "name": "",
          "type": "uint256"
        }
      ],
      "stateMutability": "view",
      "type": "function"
    },
    {
      "inputs": [],
      "name": "getCurrentPrice",
      "outputs": [
        {
          "internalType": "uint256",
          "name": "",
          "type": "uint256"
        }
      ],
      "stateMutability": "view",
      "type": "function"
    },
    {
      "inputs": [],
      "name": "seller",
      "outputs": [
        {
          "internalType": "address",
          "name": "",
          "type": "address"
        }
      ],
      "stateMutability": "view",
      "type": "function"
    }
  ],
  "bytecode": "0x608060405260006002556000600360006101000a81548160ff021916908315150217905550348015602f57600080fd5b50336000806101000a81548173ffffffffffffffffffffffffffffffffffffffff021916908373ffffffffffffffffffffffffffffffffffffffff1602179055506117d98061007f6000396000f3fe6080604052600436106100705760003560e01c8063a6f2ae3a1161004e578063a6f2ae3a146100f4578063ccadbb40146100fe578063eb91d37e14610129578063edcfafe61461015457610070565b806308551a531461007557806361d0b888146100a057806386433374146100c9575b600080fd5b34801561008157600080fd5b5061008a610198565b6040516100979190610b14565b60405180910390f35b3480156100ac57600080fd5b506100c760048036038101906100c29190610cbf565b6101bc565b005b3480156100d557600080fd5b506100de6104dc565b6040516100eb9190610d71565b60405180910390f35b6100fc6104ef565b005b34801561010a57600080fd5b506101136107e0565b6040516101209190610d9b565b60405180910390f35b34801561013557600080fd5b5061013e6107e6565b60405161014b9190610d9b565b60405180910390f35b34801561016057600080fd5b5061017b60048036038101906101769190610db6565b6108da565b60405161018f989796959493929190610e62565b60405180910390f35b60008054906101000a900473ffffffffffffffffffffffffffffffffffffffff1681565b60008054906101000a900473ffffffffffffffffffffffffffffffffffffffff1673ffffffffffffffffffffffffffffffffffffffff163373ffffffffffffffffffffffffffffffffffffffff161461024a576040517f08c379a000000000000000000000000000000000000000000000000000000000815260040161024190610f59565b60405180910390fd5b82841161028c576040517f08c379a000000000000000000000000000000000000000000000000000000000815260040161028390610feb565b60405180910390fd5b600082116102cf576040517f08c379a00000000000000000000000000000000000000000000000000000000081526004016102c69061107d565b60405180910390fd5b6001604051806101000160405280878152602001868152602001858152602001848152602001838152602001428152602001600015158152602001600073ffffffffffffffffffffffffffffffffffffffff168152509080600181540180825580915050600190039060005260206000209060070201600090919091909150600082015181600001908161036391906112a9565b506020820151816001015560408201518160020155606082015181600301556080820151816004015560a0820151816005015560c08201518160060160006101000a81548160ff02191690831515021790555060e08201518160060160016101000a81548173ffffffffffffffffffffffffffffffffffffffff021916908373ffffffffffffffffffffffffffffffffffffffff1602179055505050600360009054906101000a900460ff16156104d55761044560405180606001604052806027815260200161175660279139600360009054906101000a900460ff166109e7565b6000600360006101000a81548160ff0219169083151502179055506001808054905061047191906113aa565b6002819055507fbf4f18900b696a62e13b5cffae4e1879e52b36d627f69a5246c97606db34581760405160405180910390a16104d460405180606001604052806027815260200161177d60279139600360009054906101000a900460ff166109e7565b5b5050505050565b600360009054906101000a900460ff1681565b60018054905060025410610538576040517f08c379a000000000000000000000000000000000000000000000000000000000815260040161052f9061142a565b60405180910390fd5b60006001600254815481106105505761054f61144a565b5b906000526020600020906007020190508060060160009054906101000a900460ff16156105b2576040517f08c379a00000000000000000000000000000000000000000000000000000000081526004016105a9906114c5565b60405180910390fd5b60006105bc6107e6565b905080341015610601576040517f08c379a00000000000000000000000000000000000000000000000000000000081526004016105f890611531565b60405180910390fd5b6001600254815481106106175761061661144a565b5b90600052602060002090600702016005015442101561066b576040517f08c379a0000000000000000000000000000000000000000000000000000000008152600401610662906115c3565b60405180910390fd5b60018260060160006101000a81548160ff021916908315150217905550338260060160016101000a81548173ffffffffffffffffffffffffffffffffffffffff021916908373ffffffffffffffffffffffffffffffffffffffff16021790555060008054906101000a900473ffffffffffffffffffffffffffffffffffffffff1673ffffffffffffffffffffffffffffffffffffffff166108fc349081150290604051600060405180830381858888f19350505050158015610731573d6000803e3d6000fd5b506002547fd36670b4c5bc8ea9dd836fa565883c703150a0a266c4d9980a8dc63f583360ca33836040516107669291906115e3565b60405180910390a2600260008154809291906107819061160c565b9190505550600180549050600254106107dc576001600360006101000a81548160ff0219169083151502179055507fa0e92984607195c326795751263414ee1074526323552e694c90ef2b99ae3f2960405160405180910390a15b5050565b60025481565b600060018054905060025410610831576040517f08c379a00000000000000000000000000000000000000000000000000000000081526004016108289061142a565b60405180910390fd5b60006001600254815481106108495761084861144a565b5b906000526020600020906007020190506000816004015482600501544261087091906113aa565b61087a9190611683565b9050600082600301548261088e91906116b4565b90506000818460010154116108a75783600201546108b8565b8184600101546108b791906113aa565b5b9050836002015481116108cf5783600201546108d1565b805b94505050505090565b600181815481106108ea57600080fd5b906000526020600020906007020160009150905080600001805461090d906110cc565b80601f0160208091040260200160405190810160405280929190818152602001828054610939906110cc565b80156109865780601f1061095b57610100808354040283529160200191610986565b820191906000526020600020905b81548152906001019060200180831161096957829003601f168201915b5050505050908060010154908060020154908060030154908060040154908060050154908060060160009054906101000a900460ff16908060060160019054906101000a900473ffffffffffffffffffffffffffffffffffffffff16905088565b610a7f82826040516024016109fd9291906116f6565b6040516020818303038152906040527fc3b55635000000000000000000000000000000000000000000000000000000007bffffffffffffffffffffffffffffffffffffffffffffffffffffffff19166020820180517bffffffffffffffffffffffffffffffffffffffffffffffffffffffff8381831617835250505050610a83565b5050565b610a9a81610a92610a9d610abe565b63ffffffff16565b50565b60006a636f6e736f6c652e6c6f679050600080835160208501845afa505050565b610ac9819050919050565b610ad1611726565b565b600073ffffffffffffffffffffffffffffffffffffffff82169050919050565b6000610afe82610ad3565b9050919050565b610b0e81610af3565b82525050565b6000602082019050610b296000830184610b05565b92915050565b6000604051905090565b600080fd5b600080fd5b600080fd5b600080fd5b6000601f19601f8301169050919050565b7f4e487b7100000000000000000000000000000000000000000000000000000000600052604160045260246000fd5b610b9682610b4d565b810181811067ffffffffffffffff82111715610bb557610bb4610b5e565b5b80604052505050565b6000610bc8610b2f565b9050610bd48282610b8d565b919050565b600067ffffffffffffffff821115610bf457610bf3610b5e565b5b610bfd82610b4d565b9050602081019050919050565b82818337600083830152505050565b6000610c2c610c2784610bd9565b610bbe565b905082815260208101848484011115610c4857610c47610b48565b5b610c53848285610c0a565b509392505050565b600082601f830112610c7057610c6f610b43565b5b8135610c80848260208601610c19565b91505092915050565b6000819050919050565b610c9c81610c89565b8114610ca757600080fd5b50565b600081359050610cb981610c93565b92915050565b600080600080600060a08688031215610cdb57610cda610b39565b5b600086013567ffffffffffffffff811115610cf957610cf8610b3e565b5b610d0588828901610c5b565b9550506020610d1688828901610caa565b9450506040610d2788828901610caa565b9350506060610d3888828901610caa565b9250506080610d4988828901610caa565b9150509295509295909350565b60008115159050919050565b610d6b81610d56565b82525050565b6000602082019050610d866000830184610d62565b92915050565b610d9581610c89565b82525050565b6000602082019050610db06000830184610d8c565b92915050565b600060208284031215610dcc57610dcb610b39565b5b6000610dda84828501610caa565b91505092915050565b600081519050919050565b600082825260208201905092915050565b60005b83811015610e1d578082015181840152602081019050610e02565b60008484015250505050565b6000610e3482610de3565b610e3e8185610dee565b9350610e4e818560208601610dff565b610e5781610b4d565b840191505092915050565b6000610100820190508181036000830152610e7d818b610e29565b9050610e8c602083018a610d8c565b610e996040830189610d8c565b610ea66060830188610d8c565b610eb36080830187610d8c565b610ec060a0830186610d8c565b610ecd60c0830185610d62565b610eda60e0830184610b05565b9998505050505050505050565b7f5365756c206c652076656e646575722070657574206578c3a96375746572206360008201527f6574746520616374696f6e000000000000000000000000000000000000000000602082015250565b6000610f43602b83610dee565b9150610f4e82610ee7565b604082019050919050565b60006020820190508181036000830152610f7281610f36565b9050919050565b7f4c6520707269782064652064c3a97061727420646f697420c3aa74726520737560008201527f70c3a9726965757220617520707269782072c3a973657276c3a9000000000000602082015250565b6000610fd5603a83610dee565b9150610fe082610f79565b604082019050919050565b6000602082019050818103600083015261100481610fc8565b9050919050565b7f4c612064696d696e7574696f6e206475207072697820646f697420c3aa74726560008201527f20706f7369746976650000000000000000000000000000000000000000000000602082015250565b6000611067602983610dee565b91506110728261100b565b604082019050919050565b600060208201905081810360008301526110968161105a565b9050919050565b7f4e487b7100000000000000000000000000000000000000000000000000000000600052602260045260246000fd5b600060028204905060018216806110e457607f821691505b6020821081036110f7576110f661109d565b5b50919050565b60008190508160005260206000209050919050565b60006020601f8301049050919050565b600082821b905092915050565b60006008830261115f7fffffffffffffffffffffffffffffffffffffffffffffffffffffffffffffffff82611122565b6111698683611122565b95508019841693508086168417925050509392505050565b6000819050919050565b60006111a66111a161119c84610c89565b611181565b610c89565b9050919050565b6000819050919050565b6111c08361118b565b6111d46111cc826111ad565b84845461112f565b825550505050565b600090565b6111e96111dc565b6111f48184846111b7565b505050565b5b818110156112185761120d6000826111e1565b6001810190506111fa565b5050565b601f82111561125d5761122e816110fd565b61123784611112565b81016020851015611246578190505b61125a61125285611112565b8301826111f9565b50505b505050565b600082821c905092915050565b600061128060001984600802611262565b1980831691505092915050565b6000611299838361126f565b9150826002028217905092915050565b6112b282610de3565b67ffffffffffffffff8111156112cb576112ca610b5e565b5b6112d582546110cc565b6112e082828561121c565b600060209050601f8311600181146113135760008415611301578287015190505b61130b858261128d565b865550611373565b601f198416611321866110fd565b60005b8281101561134957848901518255600182019150602085019450602081019050611324565b868310156113665784890151611362601f89168261126f565b8355505b6001600288020188555050505b505050505050565b7f4e487b7100000000000000000000000000000000000000000000000000000000600052601160045260246000fd5b60006113b582610c89565b91506113c083610c89565b92508282039050818111156113d8576113d761137b565b5b92915050565b7f417563756e2061727469636c6520646973706f6e69626c650000000000000000600082015250565b6000611414601883610dee565b915061141f826113de565b602082019050919050565b6000602082019050818103600083015261144381611407565b9050919050565b7f4e487b7100000000000000000000000000000000000000000000000000000000600052603260045260246000fd5b7f4365742061727469636c6520612064c3a96ac3a020c3a974c3a92076656e6475600082015250565b60006114af602083610dee565b91506114ba82611479565b602082019050919050565b600060208201905081810360008301526114de816114a2565b9050919050565b7f466f6e647320696e737566666973616e74730000000000000000000000000000600082015250565b600061151b601283610dee565b9150611526826114e5565b602082019050919050565b6000602082019050818103600083015261154a8161150e565b9050919050565b7f4c27656e6368c3a87265206e27612070617320656e636f726520636f6d6d656e60008201527f63c3a90000000000000000000000000000000000000000000000000000000000602082015250565b60006115ad602383610dee565b91506115b882611551565b604082019050919050565b600060208201905081810360008301526115dc816115a0565b9050919050565b60006040820190506115f86000830185610b05565b6116056020830184610d8c565b9392505050565b600061161782610c89565b91507fffffffffffffffffffffffffffffffffffffffffffffffffffffffffffffffff82036116495761164861137b565b5b600182019050919050565b7f4e487b7100000000000000000000000000000000000000000000000000000000600052601260045260246000fd5b600061168e82610c89565b915061169983610c89565b9250826116a9576116a8611654565b5b828204905092915050565b60006116bf82610c89565b91506116ca83610c89565b92508282026116d881610c89565b915082820484148315176116ef576116ee61137b565b5b5092915050565b600060408201905081810360008301526117108185610e29565b905061171f6020830184610d62565b9392505050565b7f4e487b7100000000000000000000000000000000000000000000000000000000600052605160045260246000fdfef09f9484204176616e74206d6f64696669636174696f6e3a2061756374696f6e456e646564203de29c8520417072c3a873206d6f64696669636174696f6e3a2061756374696f6e456e646564203da26469706673582212201a4daa3f54113740bea69aeb44fd8ee72026189bb2f850e82cb595caa241fdc464736f6c634300081c0033",
  "linkReferences": {},
  "deployedLinkReferences": {}
}