{
  "_format": "hh-sol-artifact-1",
  "contractName": "DutchAuction",
  "sourceName": "contracts/DutchAuction.sol",
  "abi": [
    {
      "anonymous": false,
      "inputs": [
        {
          "indexed": false,
          "internalType": "uint256",
          "name": "auctionId",
          "type": "uint256"
        },
        {
          "indexed": false,
          "internalType": "string",
          "name": "name",
          "type": "string"
        }
      ],
      "name": "ArticleAdded",
      "type": "event"
    },
    {
      "anonymous": false,
      "inputs": [
        {
          "indexed": false,
          "internalType": "uint256",
          "name": "auctionId",
          "type": "uint256"
        },
        {
          "indexed": false,
          "internalType": "uint256",
          "name": "articleIndex",
          "type": "uint256"
        },
        {
          "indexed": false,
          "internalType": "address",
          "name": "buyer",
          "type": "address"
        },
        {
          "indexed": false,
          "internalType": "uint256",
          "name": "finalPrice",
          "type": "uint256"
        }
      ],
      "name": "ArticleSold",
      "type": "event"
    },
    {
      "anonymous": false,
      "inputs": [
        {
          "indexed": false,
          "internalType": "uint256",
          "name": "auctionId",
          "type": "uint256"
        },
        {
          "indexed": false,
          "internalType": "address",
          "name": "seller",
          "type": "address"
        }
      ],
      "name": "AuctionCreated",
      "type": "event"
    },
    {
      "anonymous": false,
      "inputs": [
        {
          "indexed": false,
          "internalType": "uint256",
          "name": "auctionId",
          "type": "uint256"
        }
      ],
      "name": "AuctionEnded",
      "type": "event"
    },
    {
      "anonymous": false,
      "inputs": [
        {
          "indexed": false,
          "internalType": "uint256",
          "name": "auctionId",
          "type": "uint256"
        }
      ],
      "name": "AuctionStarted",
      "type": "event"
    },
    {
      "inputs": [
        {
          "internalType": "uint256",
          "name": "auctionId",
          "type": "uint256"
        },
        {
          "internalType": "string",
          "name": "name",
          "type": "string"
        },
        {
          "internalType": "uint256",
          "name": "startingPrice",
          "type": "uint256"
        },
        {
          "internalType": "uint256",
          "name": "reservePrice",
          "type": "uint256"
        },
        {
          "internalType": "uint256",
          "name": "priceDecrement",
          "type": "uint256"
        },
        {
          "internalType": "uint256",
          "name": "timeInterval",
          "type": "uint256"
        }
      ],
      "name": "addArticle",
      "outputs": [],
      "stateMutability": "nonpayable",
      "type": "function"
    },
    {
      "inputs": [],
      "name": "auctionCount",
      "outputs": [
        {
          "internalType": "uint256",
          "name": "",
          "type": "uint256"
        }
      ],
      "stateMutability": "view",
      "type": "function"
    },
    {
      "inputs": [
        {
          "internalType": "uint256",
          "name": "",
          "type": "uint256"
        }
      ],
      "name": "auctions",
      "outputs": [
        {
          "internalType": "address",
          "name": "seller",
          "type": "address"
        },
        {
          "internalType": "uint256",
          "name": "currentArticleIndex",
          "type": "uint256"
        },
        {
          "internalType": "bool",
          "name": "auctionStarted",
          "type": "bool"
        },
        {
          "internalType": "bool",
          "name": "auctionEnded",
          "type": "bool"
        }
      ],
      "stateMutability": "view",
      "type": "function"
    },
    {
      "inputs": [
        {
          "internalType": "uint256",
          "name": "auctionId",
          "type": "uint256"
        },
        {
          "internalType": "uint256",
          "name": "articleIndex",
          "type": "uint256"
        }
      ],
      "name": "buy",
      "outputs": [],
      "stateMutability": "payable",
      "type": "function"
    },
    {
      "inputs": [],
      "name": "createAuction",
      "outputs": [],
      "stateMutability": "nonpayable",
      "type": "function"
    },
    {
      "inputs": [
        {
          "internalType": "uint256",
          "name": "auctionId",
          "type": "uint256"
        },
        {
          "internalType": "uint256",
          "name": "articleIndex",
          "type": "uint256"
        }
      ],
      "name": "getArticle",
      "outputs": [
        {
          "internalType": "string",
          "name": "name",
          "type": "string"
        },
        {
          "internalType": "uint256",
          "name": "startingPrice",
          "type": "uint256"
        },
        {
          "internalType": "uint256",
          "name": "reservePrice",
          "type": "uint256"
        },
        {
          "internalType": "uint256",
          "name": "priceDecrement",
          "type": "uint256"
        },
        {
          "internalType": "uint256",
          "name": "timeInterval",
          "type": "uint256"
        },
        {
          "internalType": "uint256",
          "name": "startTime",
          "type": "uint256"
        },
        {
          "internalType": "bool",
          "name": "sold",
          "type": "bool"
        },
        {
          "internalType": "address",
          "name": "buyer",
          "type": "address"
        },
        {
          "internalType": "uint256",
          "name": "finalPrice",
          "type": "uint256"
        }
      ],
      "stateMutability": "view",
      "type": "function"
    },
    {
      "inputs": [
        {
          "internalType": "uint256",
          "name": "auctionId",
          "type": "uint256"
        }
      ],
      "name": "getArticleCount",
      "outputs": [
        {
          "internalType": "uint256",
          "name": "",
          "type": "uint256"
        }
      ],
      "stateMutability": "view",
      "type": "function"
    },
    {
      "inputs": [
        {
          "internalType": "uint256",
          "name": "auctionId",
          "type": "uint256"
        },
        {
          "internalType": "uint256",
          "name": "articleIndex",
          "type": "uint256"
        }
      ],
      "name": "getCurrentPrice",
      "outputs": [
        {
          "internalType": "uint256",
          "name": "",
          "type": "uint256"
        }
      ],
      "stateMutability": "view",
      "type": "function"
    },
    {
      "inputs": [
        {
          "internalType": "uint256",
          "name": "auctionId",
          "type": "uint256"
        }
      ],
      "name": "isAuctionEnded",
      "outputs": [
        {
          "internalType": "bool",
          "name": "",
          "type": "bool"
        }
      ],
      "stateMutability": "view",
      "type": "function"
    },
    {
      "inputs": [
        {
          "internalType": "uint256",
          "name": "auctionId",
          "type": "uint256"
        }
      ],
      "name": "startAuction",
      "outputs": [],
      "stateMutability": "nonpayable",
      "type": "function"
    }
  ],
  "bytecode": "0x6080604052348015600f57600080fd5b506124878061001f6000396000f3fe6080604052600436106100915760003560e01c806383871e861161005957806383871e8614610190578063998f1b87146101d55780639c7f1a5514610212578063d6febde81461024f578063f58114471461026b57610091565b8063029809ef1461009657806304673368146100bf578063065de74c146100fc5780632ad7157314610125578063571a26a014610150575b600080fd5b3480156100a257600080fd5b506100bd60048036038101906100b89190611646565b610282565b005b3480156100cb57600080fd5b506100e660048036038101906100e191906116ef565b6105fa565b6040516100f3919061173e565b60405180910390f35b34801561010857600080fd5b50610123600480360381019061011e9190611759565b61074c565b005b34801561013157600080fd5b5061013a6109a7565b604051610147919061173e565b60405180910390f35b34801561015c57600080fd5b5061017760048036038101906101729190611759565b6109ad565b60405161018794939291906117e2565b60405180910390f35b34801561019c57600080fd5b506101b760048036038101906101b291906116ef565b610a17565b6040516101cc999897969594939291906118a6565b60405180910390f35b3480156101e157600080fd5b506101fc60048036038101906101f79190611759565b610bbd565b604051610209919061193a565b60405180910390f35b34801561021e57600080fd5b5061023960048036038101906102349190611759565b610be9565b604051610246919061173e565b60405180910390f35b610269600480360381019061026491906116ef565b610c0b565b005b34801561027757600080fd5b506102806110a1565b005b8560008082815260200190815260200160002060000160009054906101000a900473ffffffffffffffffffffffffffffffffffffffff1673ffffffffffffffffffffffffffffffffffffffff163373ffffffffffffffffffffffffffffffffffffffff1614610326576040517f08c379a000000000000000000000000000000000000000000000000000000000815260040161031d906119c7565b60405180910390fd5b60008088815260200190815260200160002060030160019054906101000a900460ff1615610389576040517f08c379a000000000000000000000000000000000000000000000000000000000815260040161038090611a33565b60405180910390fd5b60008088815260200190815260200160002060030160009054906101000a900460ff16156103ec576040517f08c379a00000000000000000000000000000000000000000000000000000000081526004016103e390611ac5565b60405180910390fd5b60008088815260200190815260200160002060010160405180610120016040528088815260200187815260200186815260200185815260200184815260200160008152602001600015158152602001600073ffffffffffffffffffffffffffffffffffffffff16815260200160008152509080600181540180825580915050600190039060005260206000209060080201600090919091909150600082015181600001908161049b9190611cf1565b506020820151816001015560408201518160020155606082015181600301556080820151816004015560a0820151816005015560c08201518160060160006101000a81548160ff02191690831515021790555060e08201518160060160016101000a81548173ffffffffffffffffffffffffffffffffffffffff021916908373ffffffffffffffffffffffffffffffffffffffff160217905550610100820151816007015550507ff3622432151d4d39851feda7948a3a3466c8181fdf2248843ebf2d25097f2ef68787604051610573929190611dc3565b60405180910390a16105f16040518060400160405280601f81526020017f41727469636c6520616a6f7574c3a92064616e73206c27656e6368c3a8726500815250886040518060400160405280600181526020017f3a00000000000000000000000000000000000000000000000000000000000000815250896111ed565b50505050505050565b60008060008085815260200190815260200160002090508060010180549050831061065a576040517f08c379a000000000000000000000000000000000000000000000000000000000815260040161065190611e3f565b60405180910390fd5b600081600101848154811061067257610671611e5f565b5b906000526020600020906008020190508060060160009054906101000a900460ff16156106a757806007015492505050610746565b8160030160009054906101000a900460ff1615806106c9575060008160050154145b156106dc57806001015492505050610746565b600081600401548260050154426106f39190611ebd565b6106fd9190611f20565b905060008260030154826107119190611f51565b905060008184600101541161072a57836002015461073b565b81846001015461073a9190611ebd565b5b905080955050505050505b92915050565b8060008082815260200190815260200160002060000160009054906101000a900473ffffffffffffffffffffffffffffffffffffffff1673ffffffffffffffffffffffffffffffffffffffff163373ffffffffffffffffffffffffffffffffffffffff16146107f0576040517f08c379a00000000000000000000000000000000000000000000000000000000081526004016107e7906119c7565b60405180910390fd5b600080600084815260200190815260200160002090508060030160009054906101000a900460ff1615610858576040517f08c379a000000000000000000000000000000000000000000000000000000000815260040161084f90611fdf565b60405180910390fd5b60008160010180549050116108a2576040517f08c379a00000000000000000000000000000000000000000000000000000000081526004016108999061204b565b60405180910390fd5b60018160030160006101000a81548160ff0219169083151502179055506000816002018190555042816001016000815481106108e1576108e0611e5f565b5b9060005260206000209060080201600501819055507f1bb96dff6ab5005aff98cdc0cf176bb7d8e0423cb48e02217d35b042cec81e9f83604051610925919061173e565b60405180910390a16109a26040518060400160405280600881526020017f456e6368c3a87265000000000000000000000000000000000000000000000000815250846040518060400160405280600c81526020017f64c3a96d617272c3a9652021000000000000000000000000000000000000000081525061128f565b505050565b60015481565b60006020528060005260406000206000915090508060000160009054906101000a900473ffffffffffffffffffffffffffffffffffffffff16908060020154908060030160009054906101000a900460ff16908060030160019054906101000a900460ff16905084565b60606000806000806000806000806000808c8152602001908152602001600020600101805490508a10610a7f576040517f08c379a0000000000000000000000000000000000000000000000000000000008152600401610a76906120b7565b60405180910390fd5b60008060008d81526020019081526020016000206001018b81548110610aa857610aa7611e5f565b5b9060005260206000209060080201905080600001816001015482600201548360030154846004015485600501548660060160009054906101000a900460ff168760060160019054906101000a900473ffffffffffffffffffffffffffffffffffffffff168860070154888054610b1d90611b14565b80601f0160208091040260200160405190810160405280929190818152602001828054610b4990611b14565b8015610b965780601f10610b6b57610100808354040283529160200191610b96565b820191906000526020600020905b815481529060010190602001808311610b7957829003601f168201915b50505050509850995099509950995099509950995099509950509295985092959850929598565b600080600083815260200190815260200160002060030160019054906101000a900460ff169050919050565b6000806000838152602001908152602001600020600101805490509050919050565b600080600084815260200190815260200160002090508060030160009054906101000a900460ff16610c72576040517f08c379a0000000000000000000000000000000000000000000000000000000008152600401610c6990612149565b60405180910390fd5b80600101805490508210610cbb576040517f08c379a0000000000000000000000000000000000000000000000000000000008152600401610cb290611e3f565b60405180910390fd5b6000816001018381548110610cd357610cd2611e5f565b5b906000526020600020906008020190508060060160009054906101000a900460ff1615610d35576040517f08c379a0000000000000000000000000000000000000000000000000000000008152600401610d2c906121b5565b60405180910390fd5b6000610d4185856105fa565b905080341015610d86576040517f08c379a0000000000000000000000000000000000000000000000000000000008152600401610d7d90612221565b60405180910390fd5b60018260060160006101000a81548160ff021916908315150217905550338260060160016101000a81548173ffffffffffffffffffffffffffffffffffffffff021916908373ffffffffffffffffffffffffffffffffffffffff1602179055508082600701819055508260000160009054906101000a900473ffffffffffffffffffffffffffffffffffffffff1673ffffffffffffffffffffffffffffffffffffffff166108fc349081150290604051600060405180830381858888f19350505050158015610e59573d6000803e3d6000fd5b507f1d2d73acac53232e6aaa5e7d3bfd4c9c01927f87b62749e1b3c7cca334914df685853384604051610e8f9493929190612241565b60405180910390a1610f626040518060400160405280601381526020017fe29c852041727469636c652076656e6475203a00000000000000000000000000815250836000018054610edf90611b14565b80601f0160208091040260200160405190810160405280929190818152602001828054610f0b90611b14565b8015610f585780601f10610f2d57610100808354040283529160200191610f58565b820191906000526020600020905b815481529060010190602001808311610f3b57829003601f168201915b505050505061132e565b8260020154840361109a57826002016000815480929190610f8290612286565b9190505550826001018054905083600201541015610fcf574283600101846002015481548110610fb557610fb4611e5f565b5b906000526020600020906008020160050181905550611099565b60018360030160016101000a81548160ff0219169083151502179055507f45806e512b1f4f10e33e8b3cb64d1d11d998d8c554a95e0841fc1c701278bd5d8560405161101b919061173e565b60405180910390a16110986040518060400160405280600f81526020017ff09f94b4204c27656e6368c3a872650000000000000000000000000000000000815250866040518060400160405280601181526020017f7327657374207465726d696ec3a965202100000000000000000000000000000081525061128f565b5b5b5050505050565b600160008154809291906110b490612286565b919050555033600080600154815260200190815260200160002060000160006101000a81548173ffffffffffffffffffffffffffffffffffffffff021916908373ffffffffffffffffffffffffffffffffffffffff16021790555060008060006001548152602001908152602001600020600201819055506000806000600154815260200190815260200160002060030160006101000a81548160ff0219169083151502179055506000806000600154815260200190815260200160002060030160016101000a81548160ff0219169083151502179055507f5d551e2a2cc977fd8c530317059b4f2d9f504fb82f7dfad736f8d56679bcdfd0600154336040516111bf9291906122ce565b60405180910390a16111eb60405180606001604052806025815260200161242d602591396001546113ca565b565b6112898484848460405160240161120794939291906122f7565b6040516020818303038152906040527f5ab84e1f000000000000000000000000000000000000000000000000000000007bffffffffffffffffffffffffffffffffffffffffffffffffffffffff19166020820180517bffffffffffffffffffffffffffffffffffffffffffffffffffffffff8381831617835250505050611466565b50505050565b6113298383836040516024016112a793929190612351565b6040516020818303038152906040527f5970e089000000000000000000000000000000000000000000000000000000007bffffffffffffffffffffffffffffffffffffffffffffffffffffffff19166020820180517bffffffffffffffffffffffffffffffffffffffffffffffffffffffff8381831617835250505050611466565b505050565b6113c68282604051602401611344929190612396565b6040516020818303038152906040527f4b5c4277000000000000000000000000000000000000000000000000000000007bffffffffffffffffffffffffffffffffffffffffffffffffffffffff19166020820180517bffffffffffffffffffffffffffffffffffffffffffffffffffffffff8381831617835250505050611466565b5050565b61146282826040516024016113e09291906123cd565b6040516020818303038152906040527fb60e72cc000000000000000000000000000000000000000000000000000000007bffffffffffffffffffffffffffffffffffffffffffffffffffffffff19166020820180517bffffffffffffffffffffffffffffffffffffffffffffffffffffffff8381831617835250505050611466565b5050565b61147d816114756114806114a1565b63ffffffff16565b50565b60006a636f6e736f6c652e6c6f679050600080835160208501845afa505050565b6114ac819050919050565b6114b46123fd565b565b6000604051905090565b600080fd5b600080fd5b6000819050919050565b6114dd816114ca565b81146114e857600080fd5b50565b6000813590506114fa816114d4565b92915050565b600080fd5b600080fd5b6000601f19601f8301169050919050565b7f4e487b7100000000000000000000000000000000000000000000000000000000600052604160045260246000fd5b6115538261150a565b810181811067ffffffffffffffff821117156115725761157161151b565b5b80604052505050565b60006115856114b6565b9050611591828261154a565b919050565b600067ffffffffffffffff8211156115b1576115b061151b565b5b6115ba8261150a565b9050602081019050919050565b82818337600083830152505050565b60006115e96115e484611596565b61157b565b90508281526020810184848401111561160557611604611505565b5b6116108482856115c7565b509392505050565b600082601f83011261162d5761162c611500565b5b813561163d8482602086016115d6565b91505092915050565b60008060008060008060c08789031215611663576116626114c0565b5b600061167189828a016114eb565b965050602087013567ffffffffffffffff811115611692576116916114c5565b5b61169e89828a01611618565b95505060406116af89828a016114eb565b94505060606116c089828a016114eb565b93505060806116d189828a016114eb565b92505060a06116e289828a016114eb565b9150509295509295509295565b60008060408385031215611706576117056114c0565b5b6000611714858286016114eb565b9250506020611725858286016114eb565b9150509250929050565b611738816114ca565b82525050565b6000602082019050611753600083018461172f565b92915050565b60006020828403121561176f5761176e6114c0565b5b600061177d848285016114eb565b91505092915050565b600073ffffffffffffffffffffffffffffffffffffffff82169050919050565b60006117b182611786565b9050919050565b6117c1816117a6565b82525050565b60008115159050919050565b6117dc816117c7565b82525050565b60006080820190506117f760008301876117b8565b611804602083018661172f565b61181160408301856117d3565b61181e60608301846117d3565b95945050505050565b600081519050919050565b600082825260208201905092915050565b60005b83811015611861578082015181840152602081019050611846565b60008484015250505050565b600061187882611827565b6118828185611832565b9350611892818560208601611843565b61189b8161150a565b840191505092915050565b60006101208201905081810360008301526118c1818c61186d565b90506118d0602083018b61172f565b6118dd604083018a61172f565b6118ea606083018961172f565b6118f7608083018861172f565b61190460a083018761172f565b61191160c08301866117d3565b61191e60e08301856117b8565b61192c61010083018461172f565b9a9950505050505050505050565b600060208201905061194f60008301846117d3565b92915050565b7f5365756c206c652076656e646575722070657574206578c3a96375746572206360008201527f6574746520616374696f6e000000000000000000000000000000000000000000602082015250565b60006119b1602b83611832565b91506119bc82611955565b604082019050919050565b600060208201905081810360008301526119e0816119a4565b9050919050565b7f4c27656e6368c3a8726520657374207465726d696ec3a9650000000000000000600082015250565b6000611a1d601883611832565b9150611a28826119e7565b602082019050919050565b60006020820190508181036000830152611a4c81611a10565b9050919050565b7f496d706f737369626c65206427616a6f75746572206465732061727469636c6560008201527f7320617072c3a873206c652064c3a9627574206465206c27656e6368c3a87265602082015250565b6000611aaf604083611832565b9150611aba82611a53565b604082019050919050565b60006020820190508181036000830152611ade81611aa2565b9050919050565b7f4e487b7100000000000000000000000000000000000000000000000000000000600052602260045260246000fd5b60006002820490506001821680611b2c57607f821691505b602082108103611b3f57611b3e611ae5565b5b50919050565b60008190508160005260206000209050919050565b60006020601f8301049050919050565b600082821b905092915050565b600060088302611ba77fffffffffffffffffffffffffffffffffffffffffffffffffffffffffffffffff82611b6a565b611bb18683611b6a565b95508019841693508086168417925050509392505050565b6000819050919050565b6000611bee611be9611be4846114ca565b611bc9565b6114ca565b9050919050565b6000819050919050565b611c0883611bd3565b611c1c611c1482611bf5565b848454611b77565b825550505050565b600090565b611c31611c24565b611c3c818484611bff565b505050565b5b81811015611c6057611c55600082611c29565b600181019050611c42565b5050565b601f821115611ca557611c7681611b45565b611c7f84611b5a565b81016020851015611c8e578190505b611ca2611c9a85611b5a565b830182611c41565b50505b505050565b600082821c905092915050565b6000611cc860001984600802611caa565b1980831691505092915050565b6000611ce18383611cb7565b9150826002028217905092915050565b611cfa82611827565b67ffffffffffffffff811115611d1357611d1261151b565b5b611d1d8254611b14565b611d28828285611c64565b600060209050601f831160018114611d5b5760008415611d49578287015190505b611d538582611cd5565b865550611dbb565b601f198416611d6986611b45565b60005b82811015611d9157848901518255600182019150602085019450602081019050611d6c565b86831015611dae5784890151611daa601f891682611cb7565b8355505b6001600288020188555050505b505050505050565b6000604082019050611dd8600083018561172f565b8181036020830152611dea818461186d565b90509392505050565b7f41727469636c6520696e76616c69646500000000000000000000000000000000600082015250565b6000611e29601083611832565b9150611e3482611df3565b602082019050919050565b60006020820190508181036000830152611e5881611e1c565b9050919050565b7f4e487b7100000000000000000000000000000000000000000000000000000000600052603260045260246000fd5b7f4e487b7100000000000000000000000000000000000000000000000000000000600052601160045260246000fd5b6000611ec8826114ca565b9150611ed3836114ca565b9250828203905081811115611eeb57611eea611e8e565b5b92915050565b7f4e487b7100000000000000000000000000000000000000000000000000000000600052601260045260246000fd5b6000611f2b826114ca565b9150611f36836114ca565b925082611f4657611f45611ef1565b5b828204905092915050565b6000611f5c826114ca565b9150611f67836114ca565b9250828202611f75816114ca565b91508282048414831517611f8c57611f8b611e8e565b5b5092915050565b7f4c27656e6368c3a8726520612064c3a96ac3a020636f6d6d656e63c3a9000000600082015250565b6000611fc9601d83611832565b9150611fd482611f93565b602082019050919050565b60006020820190508181036000830152611ff881611fbc565b9050919050565b7f417563756e2061727469636c6520646973706f6e69626c650000000000000000600082015250565b6000612035601883611832565b915061204082611fff565b602082019050919050565b6000602082019050818103600083015261206481612028565b9050919050565b7fe29d8c2041727469636c65206e6f6e2074726f7576c3a9000000000000000000600082015250565b60006120a1601783611832565b91506120ac8261206b565b602082019050919050565b600060208201905081810360008301526120d081612094565b9050919050565b7f4c27656e6368c3a87265206e27612070617320656e636f726520636f6d6d656e60008201527f63c3a90000000000000000000000000000000000000000000000000000000000602082015250565b6000612133602383611832565b915061213e826120d7565b604082019050919050565b6000602082019050818103600083015261216281612126565b9050919050565b7f4365742061727469636c6520612064c3a96ac3a020c3a974c3a92076656e6475600082015250565b600061219f602083611832565b91506121aa82612169565b602082019050919050565b600060208201905081810360008301526121ce81612192565b9050919050565b7ff09f92b020466f6e647320696e737566666973616e7473000000000000000000600082015250565b600061220b601783611832565b9150612216826121d5565b602082019050919050565b6000602082019050818103600083015261223a816121fe565b9050919050565b6000608082019050612256600083018761172f565b612263602083018661172f565b61227060408301856117b8565b61227d606083018461172f565b95945050505050565b6000612291826114ca565b91507fffffffffffffffffffffffffffffffffffffffffffffffffffffffffffffffff82036122c3576122c2611e8e565b5b600182019050919050565b60006040820190506122e3600083018561172f565b6122f060208301846117b8565b9392505050565b60006080820190508181036000830152612311818761186d565b9050612320602083018661172f565b8181036040830152612332818561186d565b90508181036060830152612346818461186d565b905095945050505050565b6000606082019050818103600083015261236b818661186d565b905061237a602083018561172f565b818103604083015261238c818461186d565b9050949350505050565b600060408201905081810360008301526123b0818561186d565b905081810360208301526123c4818461186d565b90509392505050565b600060408201905081810360008301526123e7818561186d565b90506123f6602083018461172f565b9392505050565b7f4e487b7100000000000000000000000000000000000000000000000000000000600052605160045260246000fdfe4e6f7576656c6c6520656e6368c3a87265206372c3a9c3a9652061766563206c274944203aa264697066735822122003ea2b494a9815f3398ff9d4978bd415841e3e3a8c3b7f7b161135790fd34b5964736f6c634300081c0033",
  "linkReferences": {},
  "deployedLinkReferences": {}
}