{
  "_format": "hh-sol-artifact-1",
  "contractName": "DutchAuction",
  "sourceName": "contracts/DutchAuction.sol",
  "abi": [
    {
      "anonymous": false,
      "inputs": [
        {
          "indexed": false,
          "internalType": "uint256",
          "name": "auctionId",
          "type": "uint256"
        },
        {
          "indexed": false,
          "internalType": "string",
          "name": "name",
          "type": "string"
        }
      ],
      "name": "ArticleAdded",
      "type": "event"
    },
    {
      "anonymous": false,
      "inputs": [
        {
          "indexed": false,
          "internalType": "uint256",
          "name": "auctionId",
          "type": "uint256"
        },
        {
          "indexed": false,
          "internalType": "uint256",
          "name": "articleIndex",
          "type": "uint256"
        },
        {
          "indexed": false,
          "internalType": "address",
          "name": "buyer",
          "type": "address"
        },
        {
          "indexed": false,
          "internalType": "uint256",
          "name": "finalPrice",
          "type": "uint256"
        }
      ],
      "name": "ArticleSold",
      "type": "event"
    },
    {
      "anonymous": false,
      "inputs": [
        {
          "indexed": false,
          "internalType": "uint256",
          "name": "auctionId",
          "type": "uint256"
        },
        {
          "indexed": false,
          "internalType": "address",
          "name": "seller",
          "type": "address"
        }
      ],
      "name": "AuctionCreated",
      "type": "event"
    },
    {
      "anonymous": false,
      "inputs": [
        {
          "indexed": false,
          "internalType": "uint256",
          "name": "auctionId",
          "type": "uint256"
        }
      ],
      "name": "AuctionEnded",
      "type": "event"
    },
    {
      "anonymous": false,
      "inputs": [
        {
          "indexed": false,
          "internalType": "uint256",
          "name": "auctionId",
          "type": "uint256"
        }
      ],
      "name": "AuctionStarted",
      "type": "event"
    },
    {
      "inputs": [
        {
          "internalType": "uint256",
          "name": "auctionId",
          "type": "uint256"
        },
        {
          "internalType": "string",
          "name": "name",
          "type": "string"
        },
        {
          "internalType": "uint256",
          "name": "startingPrice",
          "type": "uint256"
        },
        {
          "internalType": "uint256",
          "name": "reservePrice",
          "type": "uint256"
        },
        {
          "internalType": "uint256",
          "name": "priceDecrement",
          "type": "uint256"
        },
        {
          "internalType": "uint256",
          "name": "timeInterval",
          "type": "uint256"
        }
      ],
      "name": "addArticle",
      "outputs": [],
      "stateMutability": "nonpayable",
      "type": "function"
    },
    {
      "inputs": [],
      "name": "auctionCount",
      "outputs": [
        {
          "internalType": "uint256",
          "name": "",
          "type": "uint256"
        }
      ],
      "stateMutability": "view",
      "type": "function"
    },
    {
      "inputs": [
        {
          "internalType": "uint256",
          "name": "",
          "type": "uint256"
        }
      ],
      "name": "auctions",
      "outputs": [
        {
          "internalType": "address",
          "name": "seller",
          "type": "address"
        },
        {
          "internalType": "uint256",
          "name": "currentArticleIndex",
          "type": "uint256"
        },
        {
          "internalType": "bool",
          "name": "auctionStarted",
          "type": "bool"
        },
        {
          "internalType": "bool",
          "name": "auctionEnded",
          "type": "bool"
        }
      ],
      "stateMutability": "view",
      "type": "function"
    },
    {
      "inputs": [
        {
          "internalType": "uint256",
          "name": "auctionId",
          "type": "uint256"
        },
        {
          "internalType": "uint256",
          "name": "articleIndex",
          "type": "uint256"
        }
      ],
      "name": "buy",
      "outputs": [],
      "stateMutability": "payable",
      "type": "function"
    },
    {
      "inputs": [
        {
          "internalType": "uint256",
          "name": "auctionId",
          "type": "uint256"
        }
      ],
      "name": "checkAuctionStatus",
      "outputs": [],
      "stateMutability": "nonpayable",
      "type": "function"
    },
    {
      "inputs": [],
      "name": "createAuction",
      "outputs": [],
      "stateMutability": "nonpayable",
      "type": "function"
    },
    {
      "inputs": [
        {
          "internalType": "uint256",
          "name": "auctionId",
          "type": "uint256"
        },
        {
          "internalType": "uint256",
          "name": "articleIndex",
          "type": "uint256"
        }
      ],
      "name": "getArticle",
      "outputs": [
        {
          "internalType": "string",
          "name": "name",
          "type": "string"
        },
        {
          "internalType": "uint256",
          "name": "startingPrice",
          "type": "uint256"
        },
        {
          "internalType": "uint256",
          "name": "reservePrice",
          "type": "uint256"
        },
        {
          "internalType": "uint256",
          "name": "priceDecrement",
          "type": "uint256"
        },
        {
          "internalType": "uint256",
          "name": "timeInterval",
          "type": "uint256"
        },
        {
          "internalType": "uint256",
          "name": "startTime",
          "type": "uint256"
        },
        {
          "internalType": "bool",
          "name": "sold",
          "type": "bool"
        },
        {
          "internalType": "address",
          "name": "buyer",
          "type": "address"
        },
        {
          "internalType": "uint256",
          "name": "finalPrice",
          "type": "uint256"
        },
        {
          "internalType": "uint256",
          "name": "purchaseTime",
          "type": "uint256"
        }
      ],
      "stateMutability": "view",
      "type": "function"
    },
    {
      "inputs": [
        {
          "internalType": "uint256",
          "name": "auctionId",
          "type": "uint256"
        }
      ],
      "name": "getArticleCount",
      "outputs": [
        {
          "internalType": "uint256",
          "name": "",
          "type": "uint256"
        }
      ],
      "stateMutability": "view",
      "type": "function"
    },
    {
      "inputs": [
        {
          "internalType": "uint256",
          "name": "auctionId",
          "type": "uint256"
        },
        {
          "internalType": "uint256",
          "name": "articleIndex",
          "type": "uint256"
        }
      ],
      "name": "getCurrentPrice",
      "outputs": [
        {
          "internalType": "uint256",
          "name": "",
          "type": "uint256"
        }
      ],
      "stateMutability": "view",
      "type": "function"
    },
    {
      "inputs": [
        {
          "internalType": "uint256",
          "name": "auctionId",
          "type": "uint256"
        }
      ],
      "name": "isAuctionEnded",
      "outputs": [
        {
          "internalType": "bool",
          "name": "",
          "type": "bool"
        }
      ],
      "stateMutability": "view",
      "type": "function"
    },
    {
      "inputs": [
        {
          "internalType": "uint256",
          "name": "auctionId",
          "type": "uint256"
        }
      ],
      "name": "startAuction",
      "outputs": [],
      "stateMutability": "nonpayable",
      "type": "function"
    }
  ],
  "bytecode": "0x6080604052348015600f57600080fd5b506121208061001f6000396000f3fe60806040526004361061009c5760003560e01c806383871e861161006457806383871e861461019b578063998f1b87146101e15780639c7f1a551461021e578063adc94ab31461025b578063d6febde814610284578063f5811447146102a05761009c565b8063029809ef146100a157806304673368146100ca578063065de74c146101075780632ad7157314610130578063571a26a01461015b575b600080fd5b3480156100ad57600080fd5b506100c860048036038101906100c3919061138a565b6102b7565b005b3480156100d657600080fd5b506100f160048036038101906100ec9190611433565b6105cb565b6040516100fe9190611482565b60405180910390f35b34801561011357600080fd5b5061012e6004803603810190610129919061149d565b61071d565b005b34801561013c57600080fd5b50610145610903565b6040516101529190611482565b60405180910390f35b34801561016757600080fd5b50610182600480360381019061017d919061149d565b610909565b6040516101929493929190611526565b60405180910390f35b3480156101a757600080fd5b506101c260048036038101906101bd9190611433565b610973565b6040516101d89a999897969594939291906115ea565b60405180910390f35b3480156101ed57600080fd5b506102086004803603810190610203919061149d565b610b24565b604051610215919061168d565b60405180910390f35b34801561022a57600080fd5b506102456004803603810190610240919061149d565b610b50565b6040516102529190611482565b60405180910390f35b34801561026757600080fd5b50610282600480360381019061027d919061149d565b610b72565b005b61029e60048036038101906102999190611433565b610d73565b005b3480156102ac57600080fd5b506102b56110d2565b005b8560008082815260200190815260200160002060000160009054906101000a900473ffffffffffffffffffffffffffffffffffffffff1673ffffffffffffffffffffffffffffffffffffffff163373ffffffffffffffffffffffffffffffffffffffff161461035b576040517f08c379a00000000000000000000000000000000000000000000000000000000081526004016103529061171a565b60405180910390fd5b60008088815260200190815260200160002060030160019054906101000a900460ff16156103be576040517f08c379a00000000000000000000000000000000000000000000000000000000081526004016103b590611786565b60405180910390fd5b60008088815260200190815260200160002060030160009054906101000a900460ff1615610421576040517f08c379a000000000000000000000000000000000000000000000000000000000815260040161041890611818565b60405180910390fd5b60008088815260200190815260200160002060010160405180610140016040528088815260200187815260200186815260200185815260200184815260200160008152602001600015158152602001600073ffffffffffffffffffffffffffffffffffffffff168152602001600081526020016000815250908060018154018082558091505060019003906000526020600020906009020160009091909190915060008201518160000190816104d79190611a44565b506020820151816001015560408201518160020155606082015181600301556080820151816004015560a0820151816005015560c08201518160060160006101000a81548160ff02191690831515021790555060e08201518160060160016101000a81548173ffffffffffffffffffffffffffffffffffffffff021916908373ffffffffffffffffffffffffffffffffffffffff1602179055506101008201518160070155610120820151816008015550507ff3622432151d4d39851feda7948a3a3466c8181fdf2248843ebf2d25097f2ef687876040516105ba929190611b16565b60405180910390a150505050505050565b60008060008085815260200190815260200160002090508060010180549050831061062b576040517f08c379a000000000000000000000000000000000000000000000000000000000815260040161062290611b92565b60405180910390fd5b600081600101848154811061064357610642611bb2565b5b906000526020600020906009020190508060060160009054906101000a900460ff161561067857806007015492505050610717565b8160030160009054906101000a900460ff16158061069a575060008160050154145b156106ad57806001015492505050610717565b600081600401548260050154426106c49190611c10565b6106ce9190611c73565b905060008260030154826106e29190611ca4565b90506000818460010154116106fb57836002015461070c565b81846001015461070b9190611c10565b5b905080955050505050505b92915050565b8060008082815260200190815260200160002060000160009054906101000a900473ffffffffffffffffffffffffffffffffffffffff1673ffffffffffffffffffffffffffffffffffffffff163373ffffffffffffffffffffffffffffffffffffffff16146107c1576040517f08c379a00000000000000000000000000000000000000000000000000000000081526004016107b89061171a565b60405180910390fd5b600080600084815260200190815260200160002090508060030160009054906101000a900460ff1615610829576040517f08c379a000000000000000000000000000000000000000000000000000000000815260040161082090611d32565b60405180910390fd5b6000816001018054905011610873576040517f08c379a000000000000000000000000000000000000000000000000000000000815260040161086a90611d9e565b60405180910390fd5b60018160030160006101000a81548160ff0219169083151502179055506000816002018190555042816001016000815481106108b2576108b1611bb2565b5b9060005260206000209060090201600501819055507f1bb96dff6ab5005aff98cdc0cf176bb7d8e0423cb48e02217d35b042cec81e9f836040516108f69190611482565b60405180910390a1505050565b60015481565b60006020528060005260406000206000915090508060000160009054906101000a900473ffffffffffffffffffffffffffffffffffffffff16908060020154908060030160009054906101000a900460ff16908060030160019054906101000a900460ff16905084565b606060008060008060008060008060008060008d8152602001908152602001600020600101805490508b106109dd576040517f08c379a00000000000000000000000000000000000000000000000000000000081526004016109d490611e0a565b60405180910390fd5b60008060008e81526020019081526020016000206001018c81548110610a0657610a05611bb2565b5b9060005260206000209060090201905080600001816001015482600201548360030154846004015485600501548660060160009054906101000a900460ff168760060160019054906101000a900473ffffffffffffffffffffffffffffffffffffffff1688600701548960080154898054610a8090611867565b80601f0160208091040260200160405190810160405280929190818152602001828054610aac90611867565b8015610af95780601f10610ace57610100808354040283529160200191610af9565b820191906000526020600020905b815481529060010190602001808311610adc57829003601f168201915b505050505099509a509a509a509a509a509a509a509a509a509a50509295989b9194979a5092959850565b600080600083815260200190815260200160002060030160019054906101000a900460ff169050919050565b6000806000838152602001908152602001600020600101805490509050919050565b600080600083815260200190815260200160002090508060030160019054906101000a900460ff1615610ba55750610d70565b8060030160009054906101000a900460ff16610bf6576040517f08c379a0000000000000000000000000000000000000000000000000000000008152600401610bed90611e9c565b60405180910390fd5b8060010180549050816002015410610c43576040517f08c379a0000000000000000000000000000000000000000000000000000000008152600401610c3a90611f08565b60405180910390fd5b600081600101826002015481548110610c5f57610c5e611bb2565b5b906000526020600020906009020190506000610c7f8484600201546105cb565b9050816002015481148015610ca357508160060160009054906101000a900460ff16155b15610d6c57826001018054905060018460020154610cc19190611f28565b1015610d1657826002016000815480929190610cdc90611f5c565b91905055504283600101846002015481548110610cfc57610cfb611bb2565b5b906000526020600020906009020160050181905550610d6b565b60018360030160016101000a81548160ff0219169083151502179055507f45806e512b1f4f10e33e8b3cb64d1d11d998d8c554a95e0841fc1c701278bd5d84604051610d629190611482565b60405180910390a15b5b5050505b50565b600080600084815260200190815260200160002090508060030160009054906101000a900460ff16610dda576040517f08c379a0000000000000000000000000000000000000000000000000000000008152600401610dd190611e9c565b60405180910390fd5b80600101805490508210610e23576040517f08c379a0000000000000000000000000000000000000000000000000000000008152600401610e1a90611b92565b60405180910390fd5b6000816001018381548110610e3b57610e3a611bb2565b5b906000526020600020906009020190508060060160009054906101000a900460ff1615610e9d576040517f08c379a0000000000000000000000000000000000000000000000000000000008152600401610e9490611ff0565b60405180910390fd5b6000610ea985856105cb565b905080341015610eee576040517f08c379a0000000000000000000000000000000000000000000000000000000008152600401610ee59061205c565b60405180910390fd5b60018260060160006101000a81548160ff021916908315150217905550338260060160016101000a81548173ffffffffffffffffffffffffffffffffffffffff021916908373ffffffffffffffffffffffffffffffffffffffff1602179055508082600701819055504282600801819055508260000160009054906101000a900473ffffffffffffffffffffffffffffffffffffffff1673ffffffffffffffffffffffffffffffffffffffff166108fc349081150290604051600060405180830381858888f19350505050158015610fca573d6000803e3d6000fd5b507f1d2d73acac53232e6aaa5e7d3bfd4c9c01927f87b62749e1b3c7cca334914df685853384604051611000949392919061207c565b60405180910390a1826002015484036110cb5782600201600081548092919061102890611f5c565b919050555082600101805490508360020154101561107557428360010184600201548154811061105b5761105a611bb2565b5b9060005260206000209060090201600501819055506110ca565b60018360030160016101000a81548160ff0219169083151502179055507f45806e512b1f4f10e33e8b3cb64d1d11d998d8c554a95e0841fc1c701278bd5d856040516110c19190611482565b60405180910390a15b5b5050505050565b600160008154809291906110e590611f5c565b919050555033600080600154815260200190815260200160002060000160006101000a81548173ffffffffffffffffffffffffffffffffffffffff021916908373ffffffffffffffffffffffffffffffffffffffff16021790555060008060006001548152602001908152602001600020600201819055506000806000600154815260200190815260200160002060030160006101000a81548160ff0219169083151502179055506000806000600154815260200190815260200160002060030160016101000a81548160ff0219169083151502179055507f5d551e2a2cc977fd8c530317059b4f2d9f504fb82f7dfad736f8d56679bcdfd0600154336040516111f09291906120c1565b60405180910390a1565b6000604051905090565b600080fd5b600080fd5b6000819050919050565b6112218161120e565b811461122c57600080fd5b50565b60008135905061123e81611218565b92915050565b600080fd5b600080fd5b6000601f19601f8301169050919050565b7f4e487b7100000000000000000000000000000000000000000000000000000000600052604160045260246000fd5b6112978261124e565b810181811067ffffffffffffffff821117156112b6576112b561125f565b5b80604052505050565b60006112c96111fa565b90506112d5828261128e565b919050565b600067ffffffffffffffff8211156112f5576112f461125f565b5b6112fe8261124e565b9050602081019050919050565b82818337600083830152505050565b600061132d611328846112da565b6112bf565b90508281526020810184848401111561134957611348611249565b5b61135484828561130b565b509392505050565b600082601f83011261137157611370611244565b5b813561138184826020860161131a565b91505092915050565b60008060008060008060c087890312156113a7576113a6611204565b5b60006113b589828a0161122f565b965050602087013567ffffffffffffffff8111156113d6576113d5611209565b5b6113e289828a0161135c565b95505060406113f389828a0161122f565b945050606061140489828a0161122f565b935050608061141589828a0161122f565b92505060a061142689828a0161122f565b9150509295509295509295565b6000806040838503121561144a57611449611204565b5b60006114588582860161122f565b92505060206114698582860161122f565b9150509250929050565b61147c8161120e565b82525050565b60006020820190506114976000830184611473565b92915050565b6000602082840312156114b3576114b2611204565b5b60006114c18482850161122f565b91505092915050565b600073ffffffffffffffffffffffffffffffffffffffff82169050919050565b60006114f5826114ca565b9050919050565b611505816114ea565b82525050565b60008115159050919050565b6115208161150b565b82525050565b600060808201905061153b60008301876114fc565b6115486020830186611473565b6115556040830185611517565b6115626060830184611517565b95945050505050565b600081519050919050565b600082825260208201905092915050565b60005b838110156115a557808201518184015260208101905061158a565b60008484015250505050565b60006115bc8261156b565b6115c68185611576565b93506115d6818560208601611587565b6115df8161124e565b840191505092915050565b6000610140820190508181036000830152611605818d6115b1565b9050611614602083018c611473565b611621604083018b611473565b61162e606083018a611473565b61163b6080830189611473565b61164860a0830188611473565b61165560c0830187611517565b61166260e08301866114fc565b611670610100830185611473565b61167e610120830184611473565b9b9a5050505050505050505050565b60006020820190506116a26000830184611517565b92915050565b7f5365756c206c652076656e646575722070657574206578c3a96375746572206360008201527f6574746520616374696f6e000000000000000000000000000000000000000000602082015250565b6000611704602b83611576565b915061170f826116a8565b604082019050919050565b60006020820190508181036000830152611733816116f7565b9050919050565b7f4c27656e6368c3a8726520657374207465726d696ec3a9650000000000000000600082015250565b6000611770601883611576565b915061177b8261173a565b602082019050919050565b6000602082019050818103600083015261179f81611763565b9050919050565b7f496d706f737369626c65206427616a6f75746572206465732061727469636c6560008201527f7320617072c3a873206c652064c3a9627574206465206c27656e6368c3a87265602082015250565b6000611802604083611576565b915061180d826117a6565b604082019050919050565b60006020820190508181036000830152611831816117f5565b9050919050565b7f4e487b7100000000000000000000000000000000000000000000000000000000600052602260045260246000fd5b6000600282049050600182168061187f57607f821691505b60208210810361189257611891611838565b5b50919050565b60008190508160005260206000209050919050565b60006020601f8301049050919050565b600082821b905092915050565b6000600883026118fa7fffffffffffffffffffffffffffffffffffffffffffffffffffffffffffffffff826118bd565b61190486836118bd565b95508019841693508086168417925050509392505050565b6000819050919050565b600061194161193c6119378461120e565b61191c565b61120e565b9050919050565b6000819050919050565b61195b83611926565b61196f61196782611948565b8484546118ca565b825550505050565b600090565b611984611977565b61198f818484611952565b505050565b5b818110156119b3576119a860008261197c565b600181019050611995565b5050565b601f8211156119f8576119c981611898565b6119d2846118ad565b810160208510156119e1578190505b6119f56119ed856118ad565b830182611994565b50505b505050565b600082821c905092915050565b6000611a1b600019846008026119fd565b1980831691505092915050565b6000611a348383611a0a565b9150826002028217905092915050565b611a4d8261156b565b67ffffffffffffffff811115611a6657611a6561125f565b5b611a708254611867565b611a7b8282856119b7565b600060209050601f831160018114611aae5760008415611a9c578287015190505b611aa68582611a28565b865550611b0e565b601f198416611abc86611898565b60005b82811015611ae457848901518255600182019150602085019450602081019050611abf565b86831015611b015784890151611afd601f891682611a0a565b8355505b6001600288020188555050505b505050505050565b6000604082019050611b2b6000830185611473565b8181036020830152611b3d81846115b1565b90509392505050565b7f41727469636c6520696e76616c69646500000000000000000000000000000000600082015250565b6000611b7c601083611576565b9150611b8782611b46565b602082019050919050565b60006020820190508181036000830152611bab81611b6f565b9050919050565b7f4e487b7100000000000000000000000000000000000000000000000000000000600052603260045260246000fd5b7f4e487b7100000000000000000000000000000000000000000000000000000000600052601160045260246000fd5b6000611c1b8261120e565b9150611c268361120e565b9250828203905081811115611c3e57611c3d611be1565b5b92915050565b7f4e487b7100000000000000000000000000000000000000000000000000000000600052601260045260246000fd5b6000611c7e8261120e565b9150611c898361120e565b925082611c9957611c98611c44565b5b828204905092915050565b6000611caf8261120e565b9150611cba8361120e565b9250828202611cc88161120e565b91508282048414831517611cdf57611cde611be1565b5b5092915050565b7f4c27656e6368c3a8726520612064c3a96ac3a020636f6d6d656e63c3a9000000600082015250565b6000611d1c601d83611576565b9150611d2782611ce6565b602082019050919050565b60006020820190508181036000830152611d4b81611d0f565b9050919050565b7f417563756e2061727469636c6520646973706f6e69626c650000000000000000600082015250565b6000611d88601883611576565b9150611d9382611d52565b602082019050919050565b60006020820190508181036000830152611db781611d7b565b9050919050565b7f41727469636c65206e6f6e2074726f7576c3a900000000000000000000000000600082015250565b6000611df4601383611576565b9150611dff82611dbe565b602082019050919050565b60006020820190508181036000830152611e2381611de7565b9050919050565b7f4c27656e6368c3a87265206e27612070617320656e636f726520636f6d6d656e60008201527f63c3a90000000000000000000000000000000000000000000000000000000000602082015250565b6000611e86602383611576565b9150611e9182611e2a565b604082019050919050565b60006020820190508181036000830152611eb581611e79565b9050919050565b7f417563756e2061727469636c6520616374696600000000000000000000000000600082015250565b6000611ef2601383611576565b9150611efd82611ebc565b602082019050919050565b60006020820190508181036000830152611f2181611ee5565b9050919050565b6000611f338261120e565b9150611f3e8361120e565b9250828201905080821115611f5657611f55611be1565b5b92915050565b6000611f678261120e565b91507fffffffffffffffffffffffffffffffffffffffffffffffffffffffffffffffff8203611f9957611f98611be1565b5b600182019050919050565b7f4365742061727469636c6520612064c3a96ac3a020c3a974c3a92076656e6475600082015250565b6000611fda602083611576565b9150611fe582611fa4565b602082019050919050565b6000602082019050818103600083015261200981611fcd565b9050919050565b7f466f6e647320696e737566666973616e74730000000000000000000000000000600082015250565b6000612046601283611576565b915061205182612010565b602082019050919050565b6000602082019050818103600083015261207581612039565b9050919050565b60006080820190506120916000830187611473565b61209e6020830186611473565b6120ab60408301856114fc565b6120b86060830184611473565b95945050505050565b60006040820190506120d66000830185611473565b6120e360208301846114fc565b939250505056fea2646970667358221220494f89880f86298c0671faa0d8446be8182ea9be4fc14e876ff851be1165cc7264736f6c634300081c0033",
  "linkReferences": {},
  "deployedLinkReferences": {}
}