{
  "_format": "hh-sol-artifact-1",
  "contractName": "DutchAuction",
  "sourceName": "contracts/DutchAuction.sol",
  "abi": [
    {
      "anonymous": false,
      "inputs": [
        {
          "indexed": false,
          "internalType": "uint256",
          "name": "auctionId",
          "type": "uint256"
        },
        {
          "indexed": false,
          "internalType": "string",
          "name": "name",
          "type": "string"
        }
      ],
      "name": "ArticleAdded",
      "type": "event"
    },
    {
      "anonymous": false,
      "inputs": [
        {
          "indexed": false,
          "internalType": "uint256",
          "name": "auctionId",
          "type": "uint256"
        },
        {
          "indexed": false,
          "internalType": "uint256",
          "name": "articleIndex",
          "type": "uint256"
        },
        {
          "indexed": false,
          "internalType": "address",
          "name": "buyer",
          "type": "address"
        },
        {
          "indexed": false,
          "internalType": "uint256",
          "name": "finalPrice",
          "type": "uint256"
        }
      ],
      "name": "ArticleSold",
      "type": "event"
    },
    {
      "anonymous": false,
      "inputs": [
        {
          "indexed": false,
          "internalType": "uint256",
          "name": "auctionId",
          "type": "uint256"
        },
        {
          "indexed": false,
          "internalType": "address",
          "name": "seller",
          "type": "address"
        }
      ],
      "name": "AuctionCreated",
      "type": "event"
    },
    {
      "anonymous": false,
      "inputs": [
        {
          "indexed": false,
          "internalType": "uint256",
          "name": "auctionId",
          "type": "uint256"
        }
      ],
      "name": "AuctionEnded",
      "type": "event"
    },
    {
      "inputs": [
        {
          "internalType": "uint256",
          "name": "auctionId",
          "type": "uint256"
        },
        {
          "internalType": "string",
          "name": "name",
          "type": "string"
        },
        {
          "internalType": "uint256",
          "name": "startingPrice",
          "type": "uint256"
        },
        {
          "internalType": "uint256",
          "name": "reservePrice",
          "type": "uint256"
        },
        {
          "internalType": "uint256",
          "name": "priceDecrement",
          "type": "uint256"
        },
        {
          "internalType": "uint256",
          "name": "timeInterval",
          "type": "uint256"
        }
      ],
      "name": "addArticle",
      "outputs": [],
      "stateMutability": "nonpayable",
      "type": "function"
    },
    {
      "inputs": [],
      "name": "auctionCount",
      "outputs": [
        {
          "internalType": "uint256",
          "name": "",
          "type": "uint256"
        }
      ],
      "stateMutability": "view",
      "type": "function"
    },
    {
      "inputs": [
        {
          "internalType": "uint256",
          "name": "",
          "type": "uint256"
        }
      ],
      "name": "auctions",
      "outputs": [
        {
          "internalType": "address",
          "name": "seller",
          "type": "address"
        },
        {
          "internalType": "uint256",
          "name": "currentArticleIndex",
          "type": "uint256"
        },
        {
          "internalType": "bool",
          "name": "auctionEnded",
          "type": "bool"
        }
      ],
      "stateMutability": "view",
      "type": "function"
    },
    {
      "inputs": [
        {
          "internalType": "uint256",
          "name": "auctionId",
          "type": "uint256"
        },
        {
          "internalType": "uint256",
          "name": "articleIndex",
          "type": "uint256"
        }
      ],
      "name": "buy",
      "outputs": [],
      "stateMutability": "payable",
      "type": "function"
    },
    {
      "inputs": [],
      "name": "createAuction",
      "outputs": [],
      "stateMutability": "nonpayable",
      "type": "function"
    },
    {
      "inputs": [
        {
          "internalType": "uint256",
          "name": "auctionId",
          "type": "uint256"
        },
        {
          "internalType": "uint256",
          "name": "articleIndex",
          "type": "uint256"
        }
      ],
      "name": "getArticle",
      "outputs": [
        {
          "internalType": "string",
          "name": "name",
          "type": "string"
        },
        {
          "internalType": "uint256",
          "name": "startingPrice",
          "type": "uint256"
        },
        {
          "internalType": "uint256",
          "name": "reservePrice",
          "type": "uint256"
        },
        {
          "internalType": "uint256",
          "name": "priceDecrement",
          "type": "uint256"
        },
        {
          "internalType": "uint256",
          "name": "timeInterval",
          "type": "uint256"
        },
        {
          "internalType": "uint256",
          "name": "startTime",
          "type": "uint256"
        },
        {
          "internalType": "uint256",
          "name": "currentPrice",
          "type": "uint256"
        },
        {
          "internalType": "bool",
          "name": "sold",
          "type": "bool"
        },
        {
          "internalType": "address",
          "name": "buyer",
          "type": "address"
        }
      ],
      "stateMutability": "view",
      "type": "function"
    },
    {
      "inputs": [
        {
          "internalType": "uint256",
          "name": "auctionId",
          "type": "uint256"
        }
      ],
      "name": "getArticleCount",
      "outputs": [
        {
          "internalType": "uint256",
          "name": "",
          "type": "uint256"
        }
      ],
      "stateMutability": "view",
      "type": "function"
    },
    {
      "inputs": [
        {
          "internalType": "uint256",
          "name": "auctionId",
          "type": "uint256"
        },
        {
          "internalType": "uint256",
          "name": "articleIndex",
          "type": "uint256"
        }
      ],
      "name": "updateArticlePrice",
      "outputs": [],
      "stateMutability": "nonpayable",
      "type": "function"
    }
  ],
  "bytecode": "0x6080604052348015600f57600080fd5b5061200d8061001f6000396000f3fe60806040526004361061007b5760003560e01c80639c7f1a551161004e5780639c7f1a55146101585780639c9e715914610195578063d6febde8146101be578063f5811447146101da5761007b565b8063029809ef146100805780632ad71573146100a9578063571a26a0146100d457806383871e8614610113575b600080fd5b34801561008c57600080fd5b506100a760048036038101906100a291906112cd565b6101f1565b005b3480156100b557600080fd5b506100be610504565b6040516100cb9190611385565b60405180910390f35b3480156100e057600080fd5b506100fb60048036038101906100f691906113a0565b61050a565b60405161010a93929190611429565b60405180910390f35b34801561011f57600080fd5b5061013a60048036038101906101359190611460565b610561565b60405161014f9998979695949392919061151f565b60405180910390f35b34801561016457600080fd5b5061017f600480360381019061017a91906113a0565b610707565b60405161018c9190611385565b60405180910390f35b3480156101a157600080fd5b506101bc60048036038101906101b79190611460565b610729565b005b6101d860048036038101906101d39190611460565b61087c565b005b3480156101e657600080fd5b506101ef610cb0565b005b8560008082815260200190815260200160002060000160009054906101000a900473ffffffffffffffffffffffffffffffffffffffff1673ffffffffffffffffffffffffffffffffffffffff163373ffffffffffffffffffffffffffffffffffffffff1614610295576040517f08c379a000000000000000000000000000000000000000000000000000000000815260040161028c90611625565b60405180910390fd5b60008088815260200190815260200160002060030160009054906101000a900460ff16156102f8576040517f08c379a00000000000000000000000000000000000000000000000000000000081526004016102ef90611691565b60405180910390fd5b600080888152602001908152602001600020600101604051806101200160405280888152602001878152602001868152602001858152602001848152602001428152602001878152602001600015158152602001600073ffffffffffffffffffffffffffffffffffffffff16815250908060018154018082558091505060019003906000526020600020906008020160009091909190915060008201518160000190816103a591906118bd565b506020820151816001015560408201518160020155606082015181600301556080820151816004015560a0820151816005015560c0820151816006015560e08201518160070160006101000a81548160ff0219169083151502179055506101008201518160070160016101000a81548173ffffffffffffffffffffffffffffffffffffffff021916908373ffffffffffffffffffffffffffffffffffffffff16021790555050507ff3622432151d4d39851feda7948a3a3466c8181fdf2248843ebf2d25097f2ef6878760405161047d92919061198f565b60405180910390a16104fb6040518060400160405280601f81526020017f41727469636c6520616a6f7574c3a92064616e73206c27656e6368c3a8726500815250886040518060400160405280600181526020017f3a0000000000000000000000000000000000000000000000000000000000000081525089610dcc565b50505050505050565b60015481565b60006020528060005260406000206000915090508060000160009054906101000a900473ffffffffffffffffffffffffffffffffffffffff16908060020154908060030160009054906101000a900460ff16905083565b60606000806000806000806000806000808c8152602001908152602001600020600101805490508a106105c9576040517f08c379a00000000000000000000000000000000000000000000000000000000081526004016105c090611a0b565b60405180910390fd5b60008060008d81526020019081526020016000206001018b815481106105f2576105f1611a2b565b5b90600052602060002090600802019050806000018160010154826002015483600301548460040154856005015486600601548760070160009054906101000a900460ff168860070160019054906101000a900473ffffffffffffffffffffffffffffffffffffffff16888054610667906116e0565b80601f0160208091040260200160405190810160405280929190818152602001828054610693906116e0565b80156106e05780601f106106b5576101008083540402835291602001916106e0565b820191906000526020600020905b8154815290600101906020018083116106c357829003601f168201915b50505050509850995099509950995099509950995099509950509295985092959850929598565b6000806000838152602001908152602001600020600101805490509050919050565b6000806000848152602001908152602001600020905080600101805490508210610788576040517f08c379a000000000000000000000000000000000000000000000000000000000815260040161077f90611aa6565b60405180910390fd5b60008160010183815481106107a05761079f611a2b565b5b90600052602060002090600802019050600081600401548260050154426107c79190611af5565b6107d19190611b58565b905060008260030154826107e59190611b89565b90506000818460010154116107fe57836002015461080f565b81846001015461080e9190611af5565b5b9050808460060181905550610873604051806060016040528060238152602001611f9060239139876040518060400160405280601081526020017f7c204e6f75766561752070726978203a0000000000000000000000000000000081525084610e6e565b50505050505050565b60008060008481526020019081526020016000209050806001018054905082106108db576040517f08c379a00000000000000000000000000000000000000000000000000000000081526004016108d290611aa6565b60405180910390fd5b60008160010183815481106108f3576108f2611a2b565b5b906000526020600020906008020190508060070160009054906101000a900460ff1615610955576040517f08c379a000000000000000000000000000000000000000000000000000000000815260040161094c90611c17565b60405180910390fd5b61095f8484610729565b600081600601549050803410156109ab576040517f08c379a00000000000000000000000000000000000000000000000000000000081526004016109a290611c83565b60405180910390fd5b81600501544210156109f2576040517f08c379a00000000000000000000000000000000000000000000000000000000081526004016109e990611d15565b60405180910390fd5b60018260070160006101000a81548160ff021916908315150217905550338260070160016101000a81548173ffffffffffffffffffffffffffffffffffffffff021916908373ffffffffffffffffffffffffffffffffffffffff1602179055508260000160009054906101000a900473ffffffffffffffffffffffffffffffffffffffff1673ffffffffffffffffffffffffffffffffffffffff166108fc349081150290604051600060405180830381858888f19350505050158015610abc573d6000803e3d6000fd5b507f1d2d73acac53232e6aaa5e7d3bfd4c9c01927f87b62749e1b3c7cca334914df685853384604051610af29493929190611d35565b60405180910390a1610b706040518060400160405280601d81526020017f41727469636c652076656e64752064616e73206c27656e6368c3a87265000000815250866040518060400160405280600f81526020017fc3a0206c276163686574657572203a000000000000000000000000000000000081525033610f10565b60006001905060005b8460010180549050811015610bd757846001018181548110610b9e57610b9d611a2b565b5b906000526020600020906008020160070160009054906101000a900460ff16610bca5760009150610bd7565b8080600101915050610b79565b508015610ca85760018460030160006101000a81548160ff0219169083151502179055507f45806e512b1f4f10e33e8b3cb64d1d11d998d8c554a95e0841fc1c701278bd5d86604051610c2a9190611385565b60405180910390a1610ca76040518060400160405280600a81526020017f4c27656e6368c3a8726500000000000000000000000000000000000000000000815250876040518060400160405280601181526020017f7327657374207465726d696ec3a9652021000000000000000000000000000000815250610fb2565b5b505050505050565b60016000815480929190610cc390611d7a565b919050555033600080600154815260200190815260200160002060000160006101000a81548173ffffffffffffffffffffffffffffffffffffffff021916908373ffffffffffffffffffffffffffffffffffffffff16021790555060008060006001548152602001908152602001600020600201819055506000806000600154815260200190815260200160002060030160006101000a81548160ff0219169083151502179055507f5d551e2a2cc977fd8c530317059b4f2d9f504fb82f7dfad736f8d56679bcdfd060015433604051610d9e929190611dc2565b60405180910390a1610dca604051806060016040528060258152602001611fb360259139600154611051565b565b610e6884848484604051602401610de69493929190611deb565b6040516020818303038152906040527f5ab84e1f000000000000000000000000000000000000000000000000000000007bffffffffffffffffffffffffffffffffffffffffffffffffffffffff19166020820180517bffffffffffffffffffffffffffffffffffffffffffffffffffffffff83818316178352505050506110ed565b50505050565b610f0a84848484604051602401610e889493929190611e45565b6040516020818303038152906040527fc67ea9d1000000000000000000000000000000000000000000000000000000007bffffffffffffffffffffffffffffffffffffffffffffffffffffffff19166020820180517bffffffffffffffffffffffffffffffffffffffffffffffffffffffff83818316178352505050506110ed565b50505050565b610fac84848484604051602401610f2a9493929190611e98565b6040516020818303038152906040527f7c4632a4000000000000000000000000000000000000000000000000000000007bffffffffffffffffffffffffffffffffffffffffffffffffffffffff19166020820180517bffffffffffffffffffffffffffffffffffffffffffffffffffffffff83818316178352505050506110ed565b50505050565b61104c838383604051602401610fca93929190611eeb565b6040516020818303038152906040527f5970e089000000000000000000000000000000000000000000000000000000007bffffffffffffffffffffffffffffffffffffffffffffffffffffffff19166020820180517bffffffffffffffffffffffffffffffffffffffffffffffffffffffff83818316178352505050506110ed565b505050565b6110e98282604051602401611067929190611f30565b6040516020818303038152906040527fb60e72cc000000000000000000000000000000000000000000000000000000007bffffffffffffffffffffffffffffffffffffffffffffffffffffffff19166020820180517bffffffffffffffffffffffffffffffffffffffffffffffffffffffff83818316178352505050506110ed565b5050565b611104816110fc611107611128565b63ffffffff16565b50565b60006a636f6e736f6c652e6c6f679050600080835160208501845afa505050565b611133819050919050565b61113b611f60565b565b6000604051905090565b600080fd5b600080fd5b6000819050919050565b61116481611151565b811461116f57600080fd5b50565b6000813590506111818161115b565b92915050565b600080fd5b600080fd5b6000601f19601f8301169050919050565b7f4e487b7100000000000000000000000000000000000000000000000000000000600052604160045260246000fd5b6111da82611191565b810181811067ffffffffffffffff821117156111f9576111f86111a2565b5b80604052505050565b600061120c61113d565b905061121882826111d1565b919050565b600067ffffffffffffffff821115611238576112376111a2565b5b61124182611191565b9050602081019050919050565b82818337600083830152505050565b600061127061126b8461121d565b611202565b90508281526020810184848401111561128c5761128b61118c565b5b61129784828561124e565b509392505050565b600082601f8301126112b4576112b3611187565b5b81356112c484826020860161125d565b91505092915050565b60008060008060008060c087890312156112ea576112e9611147565b5b60006112f889828a01611172565b965050602087013567ffffffffffffffff8111156113195761131861114c565b5b61132589828a0161129f565b955050604061133689828a01611172565b945050606061134789828a01611172565b935050608061135889828a01611172565b92505060a061136989828a01611172565b9150509295509295509295565b61137f81611151565b82525050565b600060208201905061139a6000830184611376565b92915050565b6000602082840312156113b6576113b5611147565b5b60006113c484828501611172565b91505092915050565b600073ffffffffffffffffffffffffffffffffffffffff82169050919050565b60006113f8826113cd565b9050919050565b611408816113ed565b82525050565b60008115159050919050565b6114238161140e565b82525050565b600060608201905061143e60008301866113ff565b61144b6020830185611376565b611458604083018461141a565b949350505050565b6000806040838503121561147757611476611147565b5b600061148585828601611172565b925050602061149685828601611172565b9150509250929050565b600081519050919050565b600082825260208201905092915050565b60005b838110156114da5780820151818401526020810190506114bf565b60008484015250505050565b60006114f1826114a0565b6114fb81856114ab565b935061150b8185602086016114bc565b61151481611191565b840191505092915050565b600061012082019050818103600083015261153a818c6114e6565b9050611549602083018b611376565b611556604083018a611376565b6115636060830189611376565b6115706080830188611376565b61157d60a0830187611376565b61158a60c0830186611376565b61159760e083018561141a565b6115a56101008301846113ff565b9a9950505050505050505050565b7f5365756c206c652076656e646575722070657574206578c3a96375746572206360008201527f6574746520616374696f6e000000000000000000000000000000000000000000602082015250565b600061160f602b836114ab565b915061161a826115b3565b604082019050919050565b6000602082019050818103600083015261163e81611602565b9050919050565b7f4c27656e6368c3a8726520657374207465726d696ec3a9650000000000000000600082015250565b600061167b6018836114ab565b915061168682611645565b602082019050919050565b600060208201905081810360008301526116aa8161166e565b9050919050565b7f4e487b7100000000000000000000000000000000000000000000000000000000600052602260045260246000fd5b600060028204905060018216806116f857607f821691505b60208210810361170b5761170a6116b1565b5b50919050565b60008190508160005260206000209050919050565b60006020601f8301049050919050565b600082821b905092915050565b6000600883026117737fffffffffffffffffffffffffffffffffffffffffffffffffffffffffffffffff82611736565b61177d8683611736565b95508019841693508086168417925050509392505050565b6000819050919050565b60006117ba6117b56117b084611151565b611795565b611151565b9050919050565b6000819050919050565b6117d48361179f565b6117e86117e0826117c1565b848454611743565b825550505050565b600090565b6117fd6117f0565b6118088184846117cb565b505050565b5b8181101561182c576118216000826117f5565b60018101905061180e565b5050565b601f8211156118715761184281611711565b61184b84611726565b8101602085101561185a578190505b61186e61186685611726565b83018261180d565b50505b505050565b600082821c905092915050565b600061189460001984600802611876565b1980831691505092915050565b60006118ad8383611883565b9150826002028217905092915050565b6118c6826114a0565b67ffffffffffffffff8111156118df576118de6111a2565b5b6118e982546116e0565b6118f4828285611830565b600060209050601f8311600181146119275760008415611915578287015190505b61191f85826118a1565b865550611987565b601f19841661193586611711565b60005b8281101561195d57848901518255600182019150602085019450602081019050611938565b8683101561197a5784890151611976601f891682611883565b8355505b6001600288020188555050505b505050505050565b60006040820190506119a46000830185611376565b81810360208301526119b681846114e6565b90509392505050565b7fe29d8c2041727469636c65206e6f6e2074726f7576c3a9000000000000000000600082015250565b60006119f56017836114ab565b9150611a00826119bf565b602082019050919050565b60006020820190508181036000830152611a24816119e8565b9050919050565b7f4e487b7100000000000000000000000000000000000000000000000000000000600052603260045260246000fd5b7f41727469636c6520696e76616c69646500000000000000000000000000000000600082015250565b6000611a906010836114ab565b9150611a9b82611a5a565b602082019050919050565b60006020820190508181036000830152611abf81611a83565b9050919050565b7f4e487b7100000000000000000000000000000000000000000000000000000000600052601160045260246000fd5b6000611b0082611151565b9150611b0b83611151565b9250828203905081811115611b2357611b22611ac6565b5b92915050565b7f4e487b7100000000000000000000000000000000000000000000000000000000600052601260045260246000fd5b6000611b6382611151565b9150611b6e83611151565b925082611b7e57611b7d611b29565b5b828204905092915050565b6000611b9482611151565b9150611b9f83611151565b9250828202611bad81611151565b91508282048414831517611bc457611bc3611ac6565b5b5092915050565b7f4365742061727469636c6520612064c3a96ac3a020c3a974c3a92076656e6475600082015250565b6000611c016020836114ab565b9150611c0c82611bcb565b602082019050919050565b60006020820190508181036000830152611c3081611bf4565b9050919050565b7ff09f92b020466f6e647320696e737566666973616e7473000000000000000000600082015250565b6000611c6d6017836114ab565b9150611c7882611c37565b602082019050919050565b60006020820190508181036000830152611c9c81611c60565b9050919050565b7fe28fb3204c27656e6368c3a87265206e27612070617320656e636f726520636f60008201527f6d6d656e63c3a900000000000000000000000000000000000000000000000000602082015250565b6000611cff6027836114ab565b9150611d0a82611ca3565b604082019050919050565b60006020820190508181036000830152611d2e81611cf2565b9050919050565b6000608082019050611d4a6000830187611376565b611d576020830186611376565b611d6460408301856113ff565b611d716060830184611376565b95945050505050565b6000611d8582611151565b91507fffffffffffffffffffffffffffffffffffffffffffffffffffffffffffffffff8203611db757611db6611ac6565b5b600182019050919050565b6000604082019050611dd76000830185611376565b611de460208301846113ff565b9392505050565b60006080820190508181036000830152611e0581876114e6565b9050611e146020830186611376565b8181036040830152611e2681856114e6565b90508181036060830152611e3a81846114e6565b905095945050505050565b60006080820190508181036000830152611e5f81876114e6565b9050611e6e6020830186611376565b8181036040830152611e8081856114e6565b9050611e8f6060830184611376565b95945050505050565b60006080820190508181036000830152611eb281876114e6565b9050611ec16020830186611376565b8181036040830152611ed381856114e6565b9050611ee260608301846113ff565b95945050505050565b60006060820190508181036000830152611f0581866114e6565b9050611f146020830185611376565b8181036040830152611f2681846114e6565b9050949350505050565b60006040820190508181036000830152611f4a81856114e6565b9050611f596020830184611376565b9392505050565b7f4e487b7100000000000000000000000000000000000000000000000000000000600052605160045260246000fdfef09f9484204d69736520c3a0206a6f75722064752070726978203a2041727469636c654e6f7576656c6c6520656e6368c3a87265206372c3a9c3a9652061766563206c274944203aa2646970667358221220def13f833724b07e80eae6f40ff26eb52ddbdc511e41bfe7ff47e21c997666f764736f6c634300081c0033",
  "linkReferences": {},
  "deployedLinkReferences": {}
}