{
  "_format": "hh-sol-artifact-1",
  "contractName": "DutchAuction",
  "sourceName": "contracts/DutchAuction.sol",
  "abi": [
    {
      "anonymous": false,
      "inputs": [
        {
          "indexed": false,
          "internalType": "uint256",
          "name": "auctionId",
          "type": "uint256"
        },
        {
          "indexed": false,
          "internalType": "string",
          "name": "name",
          "type": "string"
        }
      ],
      "name": "ArticleAdded",
      "type": "event"
    },
    {
      "anonymous": false,
      "inputs": [
        {
          "indexed": false,
          "internalType": "uint256",
          "name": "auctionId",
          "type": "uint256"
        },
        {
          "indexed": false,
          "internalType": "uint256",
          "name": "articleIndex",
          "type": "uint256"
        },
        {
          "indexed": false,
          "internalType": "address",
          "name": "buyer",
          "type": "address"
        },
        {
          "indexed": false,
          "internalType": "uint256",
          "name": "finalPrice",
          "type": "uint256"
        }
      ],
      "name": "ArticleSold",
      "type": "event"
    },
    {
      "anonymous": false,
      "inputs": [
        {
          "indexed": false,
          "internalType": "uint256",
          "name": "auctionId",
          "type": "uint256"
        },
        {
          "indexed": false,
          "internalType": "address",
          "name": "seller",
          "type": "address"
        }
      ],
      "name": "AuctionCreated",
      "type": "event"
    },
    {
      "anonymous": false,
      "inputs": [
        {
          "indexed": false,
          "internalType": "uint256",
          "name": "auctionId",
          "type": "uint256"
        }
      ],
      "name": "AuctionEnded",
      "type": "event"
    },
    {
      "inputs": [
        {
          "internalType": "uint256",
          "name": "auctionId",
          "type": "uint256"
        },
        {
          "internalType": "string",
          "name": "name",
          "type": "string"
        },
        {
          "internalType": "uint256",
          "name": "startingPrice",
          "type": "uint256"
        },
        {
          "internalType": "uint256",
          "name": "reservePrice",
          "type": "uint256"
        },
        {
          "internalType": "uint256",
          "name": "priceDecrement",
          "type": "uint256"
        },
        {
          "internalType": "uint256",
          "name": "timeInterval",
          "type": "uint256"
        }
      ],
      "name": "addArticle",
      "outputs": [],
      "stateMutability": "nonpayable",
      "type": "function"
    },
    {
      "inputs": [],
      "name": "auctionCount",
      "outputs": [
        {
          "internalType": "uint256",
          "name": "",
          "type": "uint256"
        }
      ],
      "stateMutability": "view",
      "type": "function"
    },
    {
      "inputs": [
        {
          "internalType": "uint256",
          "name": "",
          "type": "uint256"
        }
      ],
      "name": "auctions",
      "outputs": [
        {
          "internalType": "address",
          "name": "seller",
          "type": "address"
        },
        {
          "internalType": "uint256",
          "name": "currentArticleIndex",
          "type": "uint256"
        },
        {
          "internalType": "bool",
          "name": "auctionEnded",
          "type": "bool"
        }
      ],
      "stateMutability": "view",
      "type": "function"
    },
    {
      "inputs": [
        {
          "internalType": "uint256",
          "name": "auctionId",
          "type": "uint256"
        },
        {
          "internalType": "uint256",
          "name": "articleIndex",
          "type": "uint256"
        }
      ],
      "name": "buy",
      "outputs": [],
      "stateMutability": "payable",
      "type": "function"
    },
    {
      "inputs": [],
      "name": "createAuction",
      "outputs": [],
      "stateMutability": "nonpayable",
      "type": "function"
    },
    {
      "inputs": [
        {
          "internalType": "uint256",
          "name": "auctionId",
          "type": "uint256"
        },
        {
          "internalType": "uint256",
          "name": "articleIndex",
          "type": "uint256"
        }
      ],
      "name": "getArticle",
      "outputs": [
        {
          "internalType": "string",
          "name": "name",
          "type": "string"
        },
        {
          "internalType": "uint256",
          "name": "startingPrice",
          "type": "uint256"
        },
        {
          "internalType": "uint256",
          "name": "reservePrice",
          "type": "uint256"
        },
        {
          "internalType": "uint256",
          "name": "priceDecrement",
          "type": "uint256"
        },
        {
          "internalType": "uint256",
          "name": "timeInterval",
          "type": "uint256"
        },
        {
          "internalType": "uint256",
          "name": "startTime",
          "type": "uint256"
        },
        {
          "internalType": "bool",
          "name": "sold",
          "type": "bool"
        },
        {
          "internalType": "address",
          "name": "buyer",
          "type": "address"
        }
      ],
      "stateMutability": "view",
      "type": "function"
    },
    {
      "inputs": [
        {
          "internalType": "uint256",
          "name": "auctionId",
          "type": "uint256"
        }
      ],
      "name": "getArticleCount",
      "outputs": [
        {
          "internalType": "uint256",
          "name": "",
          "type": "uint256"
        }
      ],
      "stateMutability": "view",
      "type": "function"
    },
    {
      "inputs": [
        {
          "internalType": "uint256",
          "name": "auctionId",
          "type": "uint256"
        },
        {
          "internalType": "uint256",
          "name": "articleIndex",
          "type": "uint256"
        }
      ],
      "name": "getCurrentPrice",
      "outputs": [
        {
          "internalType": "uint256",
          "name": "",
          "type": "uint256"
        }
      ],
      "stateMutability": "view",
      "type": "function"
    }
  ],
  "bytecode": "0x6080604052348015600f57600080fd5b50611ec38061001f6000396000f3fe60806040526004361061007b5760003560e01c806383871e861161004e57806383871e86146101505780639c7f1a5514610194578063d6febde8146101d1578063f5811447146101ed5761007b565b8063029809ef1461008057806304673368146100a95780632ad71573146100e6578063571a26a014610111575b600080fd5b34801561008c57600080fd5b506100a760048036038101906100a291906111bd565b610204565b005b3480156100b557600080fd5b506100d060048036038101906100cb9190611266565b610506565b6040516100dd91906112b5565b60405180910390f35b3480156100f257600080fd5b506100fb610613565b60405161010891906112b5565b60405180910390f35b34801561011d57600080fd5b50610138600480360381019061013391906112d0565b610619565b60405161014793929190611359565b60405180910390f35b34801561015c57600080fd5b5061017760048036038101906101729190611266565b610670565b60405161018b98979695949392919061140f565b60405180910390f35b3480156101a057600080fd5b506101bb60048036038101906101b691906112d0565b61080e565b6040516101c891906112b5565b60405180910390f35b6101eb60048036038101906101e69190611266565b610830565b005b3480156101f957600080fd5b50610202610c42565b005b8560008082815260200190815260200160002060000160009054906101000a900473ffffffffffffffffffffffffffffffffffffffff1673ffffffffffffffffffffffffffffffffffffffff163373ffffffffffffffffffffffffffffffffffffffff16146102a8576040517f08c379a000000000000000000000000000000000000000000000000000000000815260040161029f90611506565b60405180910390fd5b60008088815260200190815260200160002060030160009054906101000a900460ff161561030b576040517f08c379a000000000000000000000000000000000000000000000000000000000815260040161030290611572565b60405180910390fd5b600080888152602001908152602001600020600101604051806101000160405280888152602001878152602001868152602001858152602001848152602001428152602001600015158152602001600073ffffffffffffffffffffffffffffffffffffffff16815250908060018154018082558091505060019003906000526020600020906007020160009091909190915060008201518160000190816103b2919061179e565b506020820151816001015560408201518160020155606082015181600301556080820151816004015560a0820151816005015560c08201518160060160006101000a81548160ff02191690831515021790555060e08201518160060160016101000a81548173ffffffffffffffffffffffffffffffffffffffff021916908373ffffffffffffffffffffffffffffffffffffffff16021790555050507ff3622432151d4d39851feda7948a3a3466c8181fdf2248843ebf2d25097f2ef6878760405161047f929190611870565b60405180910390a16104fd6040518060400160405280601f81526020017f41727469636c6520616a6f7574c3a92064616e73206c27656e6368c3a8726500815250886040518060400160405280600181526020017f3a0000000000000000000000000000000000000000000000000000000000000081525089610d5e565b50505050505050565b600080600080858152602001908152602001600020905080600101805490508310610566576040517f08c379a000000000000000000000000000000000000000000000000000000000815260040161055d906118ec565b60405180910390fd5b600081600101848154811061057e5761057d61190c565b5b90600052602060002090600702019050600081600401548260050154426105a5919061196a565b6105af91906119cd565b905060008260030154826105c391906119fe565b90506000818460010154116105dc5783600201546105ed565b8184600101546105ec919061196a565b5b905083600201548111610604578360020154610606565b805b9550505050505092915050565b60015481565b60006020528060005260406000206000915090508060000160009054906101000a900473ffffffffffffffffffffffffffffffffffffffff16908060020154908060030160009054906101000a900460ff16905083565b606060008060008060008060008060008b81526020019081526020016000206001018054905089106106d7576040517f08c379a00000000000000000000000000000000000000000000000000000000081526004016106ce90611a8c565b60405180910390fd5b60008060008c81526020019081526020016000206001018a81548110610700576106ff61190c565b5b9060005260206000209060070201905080600001816001015482600201548360030154846004015485600501548660060160009054906101000a900460ff168760060160019054906101000a900473ffffffffffffffffffffffffffffffffffffffff16878054610770906115c1565b80601f016020809104026020016040519081016040528092919081815260200182805461079c906115c1565b80156107e95780601f106107be576101008083540402835291602001916107e9565b820191906000526020600020905b8154815290600101906020018083116107cc57829003601f168201915b5050505050975098509850985098509850985098509850509295985092959890939650565b6000806000838152602001908152602001600020600101805490509050919050565b600080600084815260200190815260200160002090508060010180549050821061088f576040517f08c379a0000000000000000000000000000000000000000000000000000000008152600401610886906118ec565b60405180910390fd5b60008160010183815481106108a7576108a661190c565b5b906000526020600020906007020190508060060160009054906101000a900460ff1615610909576040517f08c379a000000000000000000000000000000000000000000000000000000000815260040161090090611b1e565b60405180910390fd5b60006109158585610506565b90508034101561095a576040517f08c379a000000000000000000000000000000000000000000000000000000000815260040161095190611b8a565b60405180910390fd5b81600501544210156109a1576040517f08c379a000000000000000000000000000000000000000000000000000000000815260040161099890611c1c565b60405180910390fd5b60018260060160006101000a81548160ff021916908315150217905550338260060160016101000a81548173ffffffffffffffffffffffffffffffffffffffff021916908373ffffffffffffffffffffffffffffffffffffffff1602179055508260000160009054906101000a900473ffffffffffffffffffffffffffffffffffffffff1673ffffffffffffffffffffffffffffffffffffffff166108fc349081150290604051600060405180830381858888f19350505050158015610a6b573d6000803e3d6000fd5b507f1d2d73acac53232e6aaa5e7d3bfd4c9c01927f87b62749e1b3c7cca334914df685853384604051610aa19493929190611c3c565b60405180910390a1610b02604051806060016040528060218152602001611e4460219139866040518060400160405280600f81526020017fc3a0206c276163686574657572203a000000000000000000000000000000000081525033610e00565b60006001905060005b8460010180549050811015610b6957846001018181548110610b3057610b2f61190c565b5b906000526020600020906007020160060160009054906101000a900460ff16610b5c5760009150610b69565b8080600101915050610b0b565b508015610c3a5760018460030160006101000a81548160ff0219169083151502179055507f45806e512b1f4f10e33e8b3cb64d1d11d998d8c554a95e0841fc1c701278bd5d86604051610bbc91906112b5565b60405180910390a1610c396040518060400160405280600f81526020017ff09f94b4204c27656e6368c3a872650000000000000000000000000000000000815250876040518060400160405280601181526020017f7327657374207465726d696ec3a9652021000000000000000000000000000000815250610ea2565b5b505050505050565b60016000815480929190610c5590611c81565b919050555033600080600154815260200190815260200160002060000160006101000a81548173ffffffffffffffffffffffffffffffffffffffff021916908373ffffffffffffffffffffffffffffffffffffffff16021790555060008060006001548152602001908152602001600020600201819055506000806000600154815260200190815260200160002060030160006101000a81548160ff0219169083151502179055507f5d551e2a2cc977fd8c530317059b4f2d9f504fb82f7dfad736f8d56679bcdfd060015433604051610d30929190611cc9565b60405180910390a1610d5c604051806060016040528060298152602001611e6560299139600154610f41565b565b610dfa84848484604051602401610d789493929190611cf2565b6040516020818303038152906040527f5ab84e1f000000000000000000000000000000000000000000000000000000007bffffffffffffffffffffffffffffffffffffffffffffffffffffffff19166020820180517bffffffffffffffffffffffffffffffffffffffffffffffffffffffff8381831617835250505050610fdd565b50505050565b610e9c84848484604051602401610e1a9493929190611d4c565b6040516020818303038152906040527f7c4632a4000000000000000000000000000000000000000000000000000000007bffffffffffffffffffffffffffffffffffffffffffffffffffffffff19166020820180517bffffffffffffffffffffffffffffffffffffffffffffffffffffffff8381831617835250505050610fdd565b50505050565b610f3c838383604051602401610eba93929190611d9f565b6040516020818303038152906040527f5970e089000000000000000000000000000000000000000000000000000000007bffffffffffffffffffffffffffffffffffffffffffffffffffffffff19166020820180517bffffffffffffffffffffffffffffffffffffffffffffffffffffffff8381831617835250505050610fdd565b505050565b610fd98282604051602401610f57929190611de4565b6040516020818303038152906040527fb60e72cc000000000000000000000000000000000000000000000000000000007bffffffffffffffffffffffffffffffffffffffffffffffffffffffff19166020820180517bffffffffffffffffffffffffffffffffffffffffffffffffffffffff8381831617835250505050610fdd565b5050565b610ff481610fec610ff7611018565b63ffffffff16565b50565b60006a636f6e736f6c652e6c6f679050600080835160208501845afa505050565b611023819050919050565b61102b611e14565b565b6000604051905090565b600080fd5b600080fd5b6000819050919050565b61105481611041565b811461105f57600080fd5b50565b6000813590506110718161104b565b92915050565b600080fd5b600080fd5b6000601f19601f8301169050919050565b7f4e487b7100000000000000000000000000000000000000000000000000000000600052604160045260246000fd5b6110ca82611081565b810181811067ffffffffffffffff821117156110e9576110e8611092565b5b80604052505050565b60006110fc61102d565b905061110882826110c1565b919050565b600067ffffffffffffffff82111561112857611127611092565b5b61113182611081565b9050602081019050919050565b82818337600083830152505050565b600061116061115b8461110d565b6110f2565b90508281526020810184848401111561117c5761117b61107c565b5b61118784828561113e565b509392505050565b600082601f8301126111a4576111a3611077565b5b81356111b484826020860161114d565b91505092915050565b60008060008060008060c087890312156111da576111d9611037565b5b60006111e889828a01611062565b965050602087013567ffffffffffffffff8111156112095761120861103c565b5b61121589828a0161118f565b955050604061122689828a01611062565b945050606061123789828a01611062565b935050608061124889828a01611062565b92505060a061125989828a01611062565b9150509295509295509295565b6000806040838503121561127d5761127c611037565b5b600061128b85828601611062565b925050602061129c85828601611062565b9150509250929050565b6112af81611041565b82525050565b60006020820190506112ca60008301846112a6565b92915050565b6000602082840312156112e6576112e5611037565b5b60006112f484828501611062565b91505092915050565b600073ffffffffffffffffffffffffffffffffffffffff82169050919050565b6000611328826112fd565b9050919050565b6113388161131d565b82525050565b60008115159050919050565b6113538161133e565b82525050565b600060608201905061136e600083018661132f565b61137b60208301856112a6565b611388604083018461134a565b949350505050565b600081519050919050565b600082825260208201905092915050565b60005b838110156113ca5780820151818401526020810190506113af565b60008484015250505050565b60006113e182611390565b6113eb818561139b565b93506113fb8185602086016113ac565b61140481611081565b840191505092915050565b600061010082019050818103600083015261142a818b6113d6565b9050611439602083018a6112a6565b61144660408301896112a6565b61145360608301886112a6565b61146060808301876112a6565b61146d60a08301866112a6565b61147a60c083018561134a565b61148760e083018461132f565b9998505050505050505050565b7fe29d8c205365756c206c652076656e646575722070657574206578c3a963757460008201527f657220636574746520616374696f6e0000000000000000000000000000000000602082015250565b60006114f0602f8361139b565b91506114fb82611494565b604082019050919050565b6000602082019050818103600083015261151f816114e3565b9050919050565b7fe29aa0efb88f204c27656e6368c3a8726520657374207465726d696ec3a96500600082015250565b600061155c601f8361139b565b915061156782611526565b602082019050919050565b6000602082019050818103600083015261158b8161154f565b9050919050565b7f4e487b7100000000000000000000000000000000000000000000000000000000600052602260045260246000fd5b600060028204905060018216806115d957607f821691505b6020821081036115ec576115eb611592565b5b50919050565b60008190508160005260206000209050919050565b60006020601f8301049050919050565b600082821b905092915050565b6000600883026116547fffffffffffffffffffffffffffffffffffffffffffffffffffffffffffffffff82611617565b61165e8683611617565b95508019841693508086168417925050509392505050565b6000819050919050565b600061169b61169661169184611041565b611676565b611041565b9050919050565b6000819050919050565b6116b583611680565b6116c96116c1826116a2565b848454611624565b825550505050565b600090565b6116de6116d1565b6116e98184846116ac565b505050565b5b8181101561170d576117026000826116d6565b6001810190506116ef565b5050565b601f82111561175257611723816115f2565b61172c84611607565b8101602085101561173b578190505b61174f61174785611607565b8301826116ee565b50505b505050565b600082821c905092915050565b600061177560001984600802611757565b1980831691505092915050565b600061178e8383611764565b9150826002028217905092915050565b6117a782611390565b67ffffffffffffffff8111156117c0576117bf611092565b5b6117ca82546115c1565b6117d5828285611711565b600060209050601f83116001811461180857600084156117f6578287015190505b6118008582611782565b865550611868565b601f198416611816866115f2565b60005b8281101561183e57848901518255600182019150602085019450602081019050611819565b8683101561185b5784890151611857601f891682611764565b8355505b6001600288020188555050505b505050505050565b600060408201905061188560008301856112a6565b818103602083015261189781846113d6565b90509392505050565b7fe29b942041727469636c6520696e76616c696465000000000000000000000000600082015250565b60006118d660148361139b565b91506118e1826118a0565b602082019050919050565b60006020820190508181036000830152611905816118c9565b9050919050565b7f4e487b7100000000000000000000000000000000000000000000000000000000600052603260045260246000fd5b7f4e487b7100000000000000000000000000000000000000000000000000000000600052601160045260246000fd5b600061197582611041565b915061198083611041565b92508282039050818111156119985761199761193b565b5b92915050565b7f4e487b7100000000000000000000000000000000000000000000000000000000600052601260045260246000fd5b60006119d882611041565b91506119e383611041565b9250826119f3576119f261199e565b5b828204905092915050565b6000611a0982611041565b9150611a1483611041565b9250828202611a2281611041565b91508282048414831517611a3957611a3861193b565b5b5092915050565b7fe29d8c2041727469636c65206e6f6e2074726f7576c3a9000000000000000000600082015250565b6000611a7660178361139b565b9150611a8182611a40565b602082019050919050565b60006020820190508181036000830152611aa581611a69565b9050919050565b7fe29aa0efb88f204365742061727469636c6520612064c3a96ac3a020c3a974c360008201527fa92076656e647500000000000000000000000000000000000000000000000000602082015250565b6000611b0860278361139b565b9150611b1382611aac565b604082019050919050565b60006020820190508181036000830152611b3781611afb565b9050919050565b7ff09f92b020466f6e647320696e737566666973616e7473000000000000000000600082015250565b6000611b7460178361139b565b9150611b7f82611b3e565b602082019050919050565b60006020820190508181036000830152611ba381611b67565b9050919050565b7fe28fb3204c27656e6368c3a87265206e27612070617320656e636f726520636f60008201527f6d6d656e63c3a900000000000000000000000000000000000000000000000000602082015250565b6000611c0660278361139b565b9150611c1182611baa565b604082019050919050565b60006020820190508181036000830152611c3581611bf9565b9050919050565b6000608082019050611c5160008301876112a6565b611c5e60208301866112a6565b611c6b604083018561132f565b611c7860608301846112a6565b95945050505050565b6000611c8c82611041565b91507fffffffffffffffffffffffffffffffffffffffffffffffffffffffffffffffff8203611cbe57611cbd61193b565b5b600182019050919050565b6000604082019050611cde60008301856112a6565b611ceb602083018461132f565b9392505050565b60006080820190508181036000830152611d0c81876113d6565b9050611d1b60208301866112a6565b8181036040830152611d2d81856113d6565b90508181036060830152611d4181846113d6565b905095945050505050565b60006080820190508181036000830152611d6681876113d6565b9050611d7560208301866112a6565b8181036040830152611d8781856113d6565b9050611d96606083018461132f565b95945050505050565b60006060820190508181036000830152611db981866113d6565b9050611dc860208301856112a6565b8181036040830152611dda81846113d6565b9050949350505050565b60006040820190508181036000830152611dfe81856113d6565b9050611e0d60208301846112a6565b9392505050565b7f4e487b7100000000000000000000000000000000000000000000000000000000600052605160045260246000fdfee29c852041727469636c652076656e64752064616e73206c27656e6368c3a87265e29c85204e6f7576656c6c6520656e6368c3a87265206372c3a9c3a9652061766563206c274944203aa2646970667358221220b25cae2c36b34868fda578a629ae11dce201a5d75be1e5479834a150cc5f990264736f6c634300081c0033",
  "linkReferences": {},
  "deployedLinkReferences": {}
}