{
  "_format": "hh-sol-artifact-1",
  "contractName": "DutchAuction",
  "sourceName": "contracts/DutchAuction.sol",
  "abi": [
    {
      "inputs": [],
      "stateMutability": "nonpayable",
      "type": "constructor"
    },
    {
      "anonymous": false,
      "inputs": [
        {
          "indexed": true,
          "internalType": "uint256",
          "name": "articleIndex",
          "type": "uint256"
        },
        {
          "indexed": false,
          "internalType": "address",
          "name": "buyer",
          "type": "address"
        },
        {
          "indexed": false,
          "internalType": "uint256",
          "name": "finalPrice",
          "type": "uint256"
        }
      ],
      "name": "ArticleSold",
      "type": "event"
    },
    {
      "anonymous": false,
      "inputs": [],
      "name": "AuctionEnded",
      "type": "event"
    },
    {
      "inputs": [
        {
          "internalType": "string",
          "name": "name",
          "type": "string"
        },
        {
          "internalType": "uint256",
          "name": "startingPrice",
          "type": "uint256"
        },
        {
          "internalType": "uint256",
          "name": "reservePrice",
          "type": "uint256"
        },
        {
          "internalType": "uint256",
          "name": "priceDecrement",
          "type": "uint256"
        },
        {
          "internalType": "uint256",
          "name": "timeInterval",
          "type": "uint256"
        }
      ],
      "name": "addArticle",
      "outputs": [],
      "stateMutability": "nonpayable",
      "type": "function"
    },
    {
      "inputs": [
        {
          "internalType": "uint256",
          "name": "",
          "type": "uint256"
        }
      ],
      "name": "articles",
      "outputs": [
        {
          "internalType": "string",
          "name": "name",
          "type": "string"
        },
        {
          "internalType": "uint256",
          "name": "startingPrice",
          "type": "uint256"
        },
        {
          "internalType": "uint256",
          "name": "reservePrice",
          "type": "uint256"
        },
        {
          "internalType": "uint256",
          "name": "priceDecrement",
          "type": "uint256"
        },
        {
          "internalType": "uint256",
          "name": "timeInterval",
          "type": "uint256"
        },
        {
          "internalType": "uint256",
          "name": "startTime",
          "type": "uint256"
        },
        {
          "internalType": "bool",
          "name": "sold",
          "type": "bool"
        },
        {
          "internalType": "address",
          "name": "buyer",
          "type": "address"
        }
      ],
      "stateMutability": "view",
      "type": "function"
    },
    {
      "inputs": [],
      "name": "auctionEnded",
      "outputs": [
        {
          "internalType": "bool",
          "name": "",
          "type": "bool"
        }
      ],
      "stateMutability": "view",
      "type": "function"
    },
    {
      "inputs": [],
      "name": "buy",
      "outputs": [],
      "stateMutability": "payable",
      "type": "function"
    },
    {
      "inputs": [],
      "name": "currentArticleIndex",
      "outputs": [
        {
          "internalType": "uint256",
          "name": "",
          "type": "uint256"
        }
      ],
      "stateMutability": "view",
      "type": "function"
    },
    {
      "inputs": [],
      "name": "getCurrentPrice",
      "outputs": [
        {
          "internalType": "uint256",
          "name": "",
          "type": "uint256"
        }
      ],
      "stateMutability": "view",
      "type": "function"
    },
    {
      "inputs": [],
      "name": "seller",
      "outputs": [
        {
          "internalType": "address",
          "name": "",
          "type": "address"
        }
      ],
      "stateMutability": "view",
      "type": "function"
    }
  ],
  "bytecode": "0x608060405260006002556000600360006101000a81548160ff021916908315150217905550348015602f57600080fd5b50336000806101000a81548173ffffffffffffffffffffffffffffffffffffffff021916908373ffffffffffffffffffffffffffffffffffffffff16021790555061156a8061007f6000396000f3fe6080604052600436106100705760003560e01c8063a6f2ae3a1161004e578063a6f2ae3a146100f4578063ccadbb40146100fe578063eb91d37e14610129578063edcfafe61461015457610070565b806308551a531461007557806361d0b888146100a057806386433374146100c9575b600080fd5b34801561008157600080fd5b5061008a610198565b6040516100979190610952565b60405180910390f35b3480156100ac57600080fd5b506100c760048036038101906100c29190610afd565b6101bc565b005b3480156100d557600080fd5b506100de610406565b6040516100eb9190610baf565b60405180910390f35b6100fc610419565b005b34801561010a57600080fd5b5061011361070a565b6040516101209190610bd9565b60405180910390f35b34801561013557600080fd5b5061013e610710565b60405161014b9190610bd9565b60405180910390f35b34801561016057600080fd5b5061017b60048036038101906101769190610bf4565b610804565b60405161018f989796959493929190610ca0565b60405180910390f35b60008054906101000a900473ffffffffffffffffffffffffffffffffffffffff1681565b60008054906101000a900473ffffffffffffffffffffffffffffffffffffffff1673ffffffffffffffffffffffffffffffffffffffff163373ffffffffffffffffffffffffffffffffffffffff161461024a576040517f08c379a000000000000000000000000000000000000000000000000000000000815260040161024190610d97565b60405180910390fd5b82841161028c576040517f08c379a000000000000000000000000000000000000000000000000000000000815260040161028390610e29565b60405180910390fd5b600082116102cf576040517f08c379a00000000000000000000000000000000000000000000000000000000081526004016102c690610ebb565b60405180910390fd5b6001604051806101000160405280878152602001868152602001858152602001848152602001838152602001428152602001600015158152602001600073ffffffffffffffffffffffffffffffffffffffff168152509080600181540180825580915050600190039060005260206000209060070201600090919091909150600082015181600001908161036391906110e7565b506020820151816001015560408201518160020155606082015181600301556080820151816004015560a0820151816005015560c08201518160060160006101000a81548160ff02191690831515021790555060e08201518160060160016101000a81548173ffffffffffffffffffffffffffffffffffffffff021916908373ffffffffffffffffffffffffffffffffffffffff16021790555050505050505050565b600360009054906101000a900460ff1681565b60018054905060025410610462576040517f08c379a000000000000000000000000000000000000000000000000000000000815260040161045990611205565b60405180910390fd5b600060016002548154811061047a57610479611225565b5b906000526020600020906007020190508060060160009054906101000a900460ff16156104dc576040517f08c379a00000000000000000000000000000000000000000000000000000000081526004016104d3906112a0565b60405180910390fd5b60006104e6610710565b90508034101561052b576040517f08c379a00000000000000000000000000000000000000000000000000000000081526004016105229061130c565b60405180910390fd5b60016002548154811061054157610540611225565b5b906000526020600020906007020160050154421015610595576040517f08c379a000000000000000000000000000000000000000000000000000000000815260040161058c9061139e565b60405180910390fd5b60018260060160006101000a81548160ff021916908315150217905550338260060160016101000a81548173ffffffffffffffffffffffffffffffffffffffff021916908373ffffffffffffffffffffffffffffffffffffffff16021790555060008054906101000a900473ffffffffffffffffffffffffffffffffffffffff1673ffffffffffffffffffffffffffffffffffffffff166108fc349081150290604051600060405180830381858888f1935050505015801561065b573d6000803e3d6000fd5b506002547fd36670b4c5bc8ea9dd836fa565883c703150a0a266c4d9980a8dc63f583360ca33836040516106909291906113be565b60405180910390a2600260008154809291906106ab90611416565b919050555060018054905060025410610706576001600360006101000a81548160ff0219169083151502179055507fa0e92984607195c326795751263414ee1074526323552e694c90ef2b99ae3f2960405160405180910390a15b5050565b60025481565b60006001805490506002541061075b576040517f08c379a000000000000000000000000000000000000000000000000000000000815260040161075290611205565b60405180910390fd5b600060016002548154811061077357610772611225565b5b906000526020600020906007020190506000816004015482600501544261079a919061145e565b6107a491906114c1565b905060008260030154826107b891906114f2565b90506000818460010154116107d15783600201546107e2565b8184600101546107e1919061145e565b5b9050836002015481116107f95783600201546107fb565b805b94505050505090565b6001818154811061081457600080fd5b906000526020600020906007020160009150905080600001805461083790610f0a565b80601f016020809104026020016040519081016040528092919081815260200182805461086390610f0a565b80156108b05780601f10610885576101008083540402835291602001916108b0565b820191906000526020600020905b81548152906001019060200180831161089357829003601f168201915b5050505050908060010154908060020154908060030154908060040154908060050154908060060160009054906101000a900460ff16908060060160019054906101000a900473ffffffffffffffffffffffffffffffffffffffff16905088565b600073ffffffffffffffffffffffffffffffffffffffff82169050919050565b600061093c82610911565b9050919050565b61094c81610931565b82525050565b60006020820190506109676000830184610943565b92915050565b6000604051905090565b600080fd5b600080fd5b600080fd5b600080fd5b6000601f19601f8301169050919050565b7f4e487b7100000000000000000000000000000000000000000000000000000000600052604160045260246000fd5b6109d48261098b565b810181811067ffffffffffffffff821117156109f3576109f261099c565b5b80604052505050565b6000610a0661096d565b9050610a1282826109cb565b919050565b600067ffffffffffffffff821115610a3257610a3161099c565b5b610a3b8261098b565b9050602081019050919050565b82818337600083830152505050565b6000610a6a610a6584610a17565b6109fc565b905082815260208101848484011115610a8657610a85610986565b5b610a91848285610a48565b509392505050565b600082601f830112610aae57610aad610981565b5b8135610abe848260208601610a57565b91505092915050565b6000819050919050565b610ada81610ac7565b8114610ae557600080fd5b50565b600081359050610af781610ad1565b92915050565b600080600080600060a08688031215610b1957610b18610977565b5b600086013567ffffffffffffffff811115610b3757610b3661097c565b5b610b4388828901610a99565b9550506020610b5488828901610ae8565b9450506040610b6588828901610ae8565b9350506060610b7688828901610ae8565b9250506080610b8788828901610ae8565b9150509295509295909350565b60008115159050919050565b610ba981610b94565b82525050565b6000602082019050610bc46000830184610ba0565b92915050565b610bd381610ac7565b82525050565b6000602082019050610bee6000830184610bca565b92915050565b600060208284031215610c0a57610c09610977565b5b6000610c1884828501610ae8565b91505092915050565b600081519050919050565b600082825260208201905092915050565b60005b83811015610c5b578082015181840152602081019050610c40565b60008484015250505050565b6000610c7282610c21565b610c7c8185610c2c565b9350610c8c818560208601610c3d565b610c958161098b565b840191505092915050565b6000610100820190508181036000830152610cbb818b610c67565b9050610cca602083018a610bca565b610cd76040830189610bca565b610ce46060830188610bca565b610cf16080830187610bca565b610cfe60a0830186610bca565b610d0b60c0830185610ba0565b610d1860e0830184610943565b9998505050505050505050565b7f5365756c206c652076656e646575722070657574206578c3a96375746572206360008201527f6574746520616374696f6e000000000000000000000000000000000000000000602082015250565b6000610d81602b83610c2c565b9150610d8c82610d25565b604082019050919050565b60006020820190508181036000830152610db081610d74565b9050919050565b7f4c6520707269782064652064c3a97061727420646f697420c3aa74726520737560008201527f70c3a9726965757220617520707269782072c3a973657276c3a9000000000000602082015250565b6000610e13603a83610c2c565b9150610e1e82610db7565b604082019050919050565b60006020820190508181036000830152610e4281610e06565b9050919050565b7f4c612064696d696e7574696f6e206475207072697820646f697420c3aa74726560008201527f20706f7369746976650000000000000000000000000000000000000000000000602082015250565b6000610ea5602983610c2c565b9150610eb082610e49565b604082019050919050565b60006020820190508181036000830152610ed481610e98565b9050919050565b7f4e487b7100000000000000000000000000000000000000000000000000000000600052602260045260246000fd5b60006002820490506001821680610f2257607f821691505b602082108103610f3557610f34610edb565b5b50919050565b60008190508160005260206000209050919050565b60006020601f8301049050919050565b600082821b905092915050565b600060088302610f9d7fffffffffffffffffffffffffffffffffffffffffffffffffffffffffffffffff82610f60565b610fa78683610f60565b95508019841693508086168417925050509392505050565b6000819050919050565b6000610fe4610fdf610fda84610ac7565b610fbf565b610ac7565b9050919050565b6000819050919050565b610ffe83610fc9565b61101261100a82610feb565b848454610f6d565b825550505050565b600090565b61102761101a565b611032818484610ff5565b505050565b5b818110156110565761104b60008261101f565b600181019050611038565b5050565b601f82111561109b5761106c81610f3b565b61107584610f50565b81016020851015611084578190505b61109861109085610f50565b830182611037565b50505b505050565b600082821c905092915050565b60006110be600019846008026110a0565b1980831691505092915050565b60006110d783836110ad565b9150826002028217905092915050565b6110f082610c21565b67ffffffffffffffff8111156111095761110861099c565b5b6111138254610f0a565b61111e82828561105a565b600060209050601f831160018114611151576000841561113f578287015190505b61114985826110cb565b8655506111b1565b601f19841661115f86610f3b565b60005b8281101561118757848901518255600182019150602085019450602081019050611162565b868310156111a457848901516111a0601f8916826110ad565b8355505b6001600288020188555050505b505050505050565b7f417563756e2061727469636c6520646973706f6e69626c650000000000000000600082015250565b60006111ef601883610c2c565b91506111fa826111b9565b602082019050919050565b6000602082019050818103600083015261121e816111e2565b9050919050565b7f4e487b7100000000000000000000000000000000000000000000000000000000600052603260045260246000fd5b7f4365742061727469636c6520612064c3a96ac3a020c3a974c3a92076656e6475600082015250565b600061128a602083610c2c565b915061129582611254565b602082019050919050565b600060208201905081810360008301526112b98161127d565b9050919050565b7f466f6e647320696e737566666973616e74730000000000000000000000000000600082015250565b60006112f6601283610c2c565b9150611301826112c0565b602082019050919050565b60006020820190508181036000830152611325816112e9565b9050919050565b7f4c27656e6368c3a87265206e27612070617320656e636f726520636f6d6d656e60008201527f63c3a90000000000000000000000000000000000000000000000000000000000602082015250565b6000611388602383610c2c565b91506113938261132c565b604082019050919050565b600060208201905081810360008301526113b78161137b565b9050919050565b60006040820190506113d36000830185610943565b6113e06020830184610bca565b9392505050565b7f4e487b7100000000000000000000000000000000000000000000000000000000600052601160045260246000fd5b600061142182610ac7565b91507fffffffffffffffffffffffffffffffffffffffffffffffffffffffffffffffff8203611453576114526113e7565b5b600182019050919050565b600061146982610ac7565b915061147483610ac7565b925082820390508181111561148c5761148b6113e7565b5b92915050565b7f4e487b7100000000000000000000000000000000000000000000000000000000600052601260045260246000fd5b60006114cc82610ac7565b91506114d783610ac7565b9250826114e7576114e6611492565b5b828204905092915050565b60006114fd82610ac7565b915061150883610ac7565b925082820261151681610ac7565b9150828204841483151761152d5761152c6113e7565b5b509291505056fea26469706673582212209550435d07fd35f4169e8637765b90dd9cf2dbe32044821cf998be9095d1b2fa64736f6c634300081c0033",
  "linkReferences": {},
  "deployedLinkReferences": {}
}