{
  "_format": "hh-sol-artifact-1",
  "contractName": "DutchAuction",
  "sourceName": "contracts/DutchAuction.sol",
  "abi": [
    {
      "anonymous": false,
      "inputs": [
        {
          "indexed": false,
          "internalType": "uint256",
          "name": "auctionId",
          "type": "uint256"
        },
        {
          "indexed": false,
          "internalType": "string",
          "name": "name",
          "type": "string"
        }
      ],
      "name": "ArticleAdded",
      "type": "event"
    },
    {
      "anonymous": false,
      "inputs": [
        {
          "indexed": false,
          "internalType": "uint256",
          "name": "auctionId",
          "type": "uint256"
        },
        {
          "indexed": false,
          "internalType": "uint256",
          "name": "articleIndex",
          "type": "uint256"
        },
        {
          "indexed": false,
          "internalType": "address",
          "name": "buyer",
          "type": "address"
        },
        {
          "indexed": false,
          "internalType": "uint256",
          "name": "finalPrice",
          "type": "uint256"
        }
      ],
      "name": "ArticleSold",
      "type": "event"
    },
    {
      "anonymous": false,
      "inputs": [
        {
          "indexed": false,
          "internalType": "uint256",
          "name": "auctionId",
          "type": "uint256"
        },
        {
          "indexed": false,
          "internalType": "address",
          "name": "seller",
          "type": "address"
        }
      ],
      "name": "AuctionCreated",
      "type": "event"
    },
    {
      "anonymous": false,
      "inputs": [
        {
          "indexed": false,
          "internalType": "uint256",
          "name": "auctionId",
          "type": "uint256"
        }
      ],
      "name": "AuctionEnded",
      "type": "event"
    },
    {
      "anonymous": false,
      "inputs": [
        {
          "indexed": false,
          "internalType": "uint256",
          "name": "auctionId",
          "type": "uint256"
        }
      ],
      "name": "AuctionStarted",
      "type": "event"
    },
    {
      "inputs": [
        {
          "internalType": "uint256",
          "name": "auctionId",
          "type": "uint256"
        },
        {
          "internalType": "string",
          "name": "name",
          "type": "string"
        },
        {
          "internalType": "uint256",
          "name": "startingPrice",
          "type": "uint256"
        },
        {
          "internalType": "uint256",
          "name": "reservePrice",
          "type": "uint256"
        },
        {
          "internalType": "uint256",
          "name": "priceDecrement",
          "type": "uint256"
        },
        {
          "internalType": "uint256",
          "name": "timeInterval",
          "type": "uint256"
        }
      ],
      "name": "addArticle",
      "outputs": [],
      "stateMutability": "nonpayable",
      "type": "function"
    },
    {
      "inputs": [],
      "name": "auctionCount",
      "outputs": [
        {
          "internalType": "uint256",
          "name": "",
          "type": "uint256"
        }
      ],
      "stateMutability": "view",
      "type": "function"
    },
    {
      "inputs": [
        {
          "internalType": "uint256",
          "name": "",
          "type": "uint256"
        }
      ],
      "name": "auctions",
      "outputs": [
        {
          "internalType": "address",
          "name": "seller",
          "type": "address"
        },
        {
          "internalType": "uint256",
          "name": "currentArticleIndex",
          "type": "uint256"
        },
        {
          "internalType": "bool",
          "name": "auctionStarted",
          "type": "bool"
        },
        {
          "internalType": "bool",
          "name": "auctionEnded",
          "type": "bool"
        }
      ],
      "stateMutability": "view",
      "type": "function"
    },
    {
      "inputs": [
        {
          "internalType": "uint256",
          "name": "auctionId",
          "type": "uint256"
        },
        {
          "internalType": "uint256",
          "name": "articleIndex",
          "type": "uint256"
        }
      ],
      "name": "buy",
      "outputs": [],
      "stateMutability": "payable",
      "type": "function"
    },
    {
      "inputs": [
        {
          "internalType": "uint256",
          "name": "auctionId",
          "type": "uint256"
        }
      ],
      "name": "checkAuctionStatus",
      "outputs": [],
      "stateMutability": "nonpayable",
      "type": "function"
    },
    {
      "inputs": [],
      "name": "createAuction",
      "outputs": [],
      "stateMutability": "nonpayable",
      "type": "function"
    },
    {
      "inputs": [
        {
          "internalType": "uint256",
          "name": "auctionId",
          "type": "uint256"
        },
        {
          "internalType": "uint256",
          "name": "articleIndex",
          "type": "uint256"
        }
      ],
      "name": "getArticle",
      "outputs": [
        {
          "internalType": "string",
          "name": "name",
          "type": "string"
        },
        {
          "internalType": "uint256",
          "name": "startingPrice",
          "type": "uint256"
        },
        {
          "internalType": "uint256",
          "name": "reservePrice",
          "type": "uint256"
        },
        {
          "internalType": "uint256",
          "name": "priceDecrement",
          "type": "uint256"
        },
        {
          "internalType": "uint256",
          "name": "timeInterval",
          "type": "uint256"
        },
        {
          "internalType": "uint256",
          "name": "startTime",
          "type": "uint256"
        },
        {
          "internalType": "bool",
          "name": "sold",
          "type": "bool"
        },
        {
          "internalType": "address",
          "name": "buyer",
          "type": "address"
        },
        {
          "internalType": "uint256",
          "name": "finalPrice",
          "type": "uint256"
        },
        {
          "internalType": "uint256",
          "name": "purchaseTime",
          "type": "uint256"
        }
      ],
      "stateMutability": "view",
      "type": "function"
    },
    {
      "inputs": [
        {
          "internalType": "uint256",
          "name": "auctionId",
          "type": "uint256"
        }
      ],
      "name": "getArticleCount",
      "outputs": [
        {
          "internalType": "uint256",
          "name": "",
          "type": "uint256"
        }
      ],
      "stateMutability": "view",
      "type": "function"
    },
    {
      "inputs": [
        {
          "internalType": "uint256",
          "name": "auctionId",
          "type": "uint256"
        },
        {
          "internalType": "uint256",
          "name": "articleIndex",
          "type": "uint256"
        }
      ],
      "name": "getCurrentPrice",
      "outputs": [
        {
          "internalType": "uint256",
          "name": "",
          "type": "uint256"
        }
      ],
      "stateMutability": "view",
      "type": "function"
    },
    {
      "inputs": [
        {
          "internalType": "uint256",
          "name": "auctionId",
          "type": "uint256"
        }
      ],
      "name": "isAuctionEnded",
      "outputs": [
        {
          "internalType": "bool",
          "name": "",
          "type": "bool"
        }
      ],
      "stateMutability": "view",
      "type": "function"
    },
    {
      "inputs": [
        {
          "internalType": "uint256",
          "name": "auctionId",
          "type": "uint256"
        }
      ],
      "name": "startAuction",
      "outputs": [],
      "stateMutability": "nonpayable",
      "type": "function"
    }
  ],
  "bytecode": "0x6080604052348015600f57600080fd5b506128568061001f6000396000f3fe60806040526004361061009c5760003560e01c806383871e861161006457806383871e861461019b578063998f1b87146101e15780639c7f1a551461021e578063adc94ab31461025b578063d6febde814610284578063f5811447146102a05761009c565b8063029809ef146100a157806304673368146100ca578063065de74c146101075780632ad7157314610130578063571a26a01461015b575b600080fd5b3480156100ad57600080fd5b506100c860048036038101906100c3919061193d565b6102b7565b005b3480156100d657600080fd5b506100f160048036038101906100ec91906119e6565b610641565b6040516100fe9190611a35565b60405180910390f35b34801561011357600080fd5b5061012e60048036038101906101299190611a50565b610793565b005b34801561013c57600080fd5b506101456109ee565b6040516101529190611a35565b60405180910390f35b34801561016757600080fd5b50610182600480360381019061017d9190611a50565b6109f4565b6040516101929493929190611ad9565b60405180910390f35b3480156101a757600080fd5b506101c260048036038101906101bd91906119e6565b610a5e565b6040516101d89a99989796959493929190611b9d565b60405180910390f35b3480156101ed57600080fd5b5061020860048036038101906102039190611a50565b610c0f565b6040516102159190611c40565b60405180910390f35b34801561022a57600080fd5b5061024560048036038101906102409190611a50565b610c3b565b6040516102529190611a35565b60405180910390f35b34801561026757600080fd5b50610282600480360381019061027d9190611a50565b610c5d565b005b61029e600480360381019061029991906119e6565b610ef9565b005b3480156102ac57600080fd5b506102b5611398565b005b8560008082815260200190815260200160002060000160009054906101000a900473ffffffffffffffffffffffffffffffffffffffff1673ffffffffffffffffffffffffffffffffffffffff163373ffffffffffffffffffffffffffffffffffffffff161461035b576040517f08c379a000000000000000000000000000000000000000000000000000000000815260040161035290611ccd565b60405180910390fd5b60008088815260200190815260200160002060030160019054906101000a900460ff16156103be576040517f08c379a00000000000000000000000000000000000000000000000000000000081526004016103b590611d39565b60405180910390fd5b60008088815260200190815260200160002060030160009054906101000a900460ff1615610421576040517f08c379a000000000000000000000000000000000000000000000000000000000815260040161041890611dcb565b60405180910390fd5b60008088815260200190815260200160002060010160405180610140016040528088815260200187815260200186815260200185815260200184815260200160008152602001600015158152602001600073ffffffffffffffffffffffffffffffffffffffff168152602001600081526020016000815250908060018154018082558091505060019003906000526020600020906009020160009091909190915060008201518160000190816104d79190611ff7565b506020820151816001015560408201518160020155606082015181600301556080820151816004015560a0820151816005015560c08201518160060160006101000a81548160ff02191690831515021790555060e08201518160060160016101000a81548173ffffffffffffffffffffffffffffffffffffffff021916908373ffffffffffffffffffffffffffffffffffffffff1602179055506101008201518160070155610120820151816008015550507ff3622432151d4d39851feda7948a3a3466c8181fdf2248843ebf2d25097f2ef687876040516105ba9291906120c9565b60405180910390a16106386040518060400160405280601f81526020017f41727469636c6520616a6f7574c3a92064616e73206c27656e6368c3a8726500815250886040518060400160405280600181526020017f3a00000000000000000000000000000000000000000000000000000000000000815250896114e4565b50505050505050565b6000806000808581526020019081526020016000209050806001018054905083106106a1576040517f08c379a000000000000000000000000000000000000000000000000000000000815260040161069890612145565b60405180910390fd5b60008160010184815481106106b9576106b8612165565b5b906000526020600020906009020190508060060160009054906101000a900460ff16156106ee5780600701549250505061078d565b8160030160009054906101000a900460ff161580610710575060008160050154145b156107235780600101549250505061078d565b6000816004015482600501544261073a91906121c3565b6107449190612226565b905060008260030154826107589190612257565b9050600081846001015411610771578360020154610782565b81846001015461078191906121c3565b5b905080955050505050505b92915050565b8060008082815260200190815260200160002060000160009054906101000a900473ffffffffffffffffffffffffffffffffffffffff1673ffffffffffffffffffffffffffffffffffffffff163373ffffffffffffffffffffffffffffffffffffffff1614610837576040517f08c379a000000000000000000000000000000000000000000000000000000000815260040161082e90611ccd565b60405180910390fd5b600080600084815260200190815260200160002090508060030160009054906101000a900460ff161561089f576040517f08c379a0000000000000000000000000000000000000000000000000000000008152600401610896906122e5565b60405180910390fd5b60008160010180549050116108e9576040517f08c379a00000000000000000000000000000000000000000000000000000000081526004016108e090612351565b60405180910390fd5b60018160030160006101000a81548160ff02191690831515021790555060008160020181905550428160010160008154811061092857610927612165565b5b9060005260206000209060090201600501819055507f1bb96dff6ab5005aff98cdc0cf176bb7d8e0423cb48e02217d35b042cec81e9f8360405161096c9190611a35565b60405180910390a16109e96040518060400160405280600881526020017f456e6368c3a87265000000000000000000000000000000000000000000000000815250846040518060400160405280600c81526020017f64c3a96d617272c3a96520210000000000000000000000000000000000000000815250611586565b505050565b60015481565b60006020528060005260406000206000915090508060000160009054906101000a900473ffffffffffffffffffffffffffffffffffffffff16908060020154908060030160009054906101000a900460ff16908060030160019054906101000a900460ff16905084565b606060008060008060008060008060008060008d8152602001908152602001600020600101805490508b10610ac8576040517f08c379a0000000000000000000000000000000000000000000000000000000008152600401610abf906123bd565b60405180910390fd5b60008060008e81526020019081526020016000206001018c81548110610af157610af0612165565b5b9060005260206000209060090201905080600001816001015482600201548360030154846004015485600501548660060160009054906101000a900460ff168760060160019054906101000a900473ffffffffffffffffffffffffffffffffffffffff1688600701548960080154898054610b6b90611e1a565b80601f0160208091040260200160405190810160405280929190818152602001828054610b9790611e1a565b8015610be45780601f10610bb957610100808354040283529160200191610be4565b820191906000526020600020905b815481529060010190602001808311610bc757829003601f168201915b505050505099509a509a509a509a509a509a509a509a509a509a50509295989b9194979a5092959850565b600080600083815260200190815260200160002060030160019054906101000a900460ff169050919050565b6000806000838152602001908152602001600020600101805490509050919050565b600080600083815260200190815260200160002090508060030160019054906101000a900460ff1615610c905750610ef6565b8060030160009054906101000a900460ff16610ce1576040517f08c379a0000000000000000000000000000000000000000000000000000000008152600401610cd89061244f565b60405180910390fd5b8060010180549050816002015410610d2e576040517f08c379a0000000000000000000000000000000000000000000000000000000008152600401610d25906124bb565b60405180910390fd5b600081600101826002015481548110610d4a57610d49612165565b5b906000526020600020906009020190506000610d6a848460020154610641565b9050816002015481148015610d8e57508160060160009054906101000a900460ff16155b15610ef257610db96040518060600160405280602981526020016127d3602991398460020154611625565b826001018054905060018460020154610dd291906124db565b1015610e2757826002016000815480929190610ded9061250f565b91905055504283600101846002015481548110610e0d57610e0c612165565b5b906000526020600020906009020160050181905550610ef1565b60018360030160016101000a81548160ff0219169083151502179055507f45806e512b1f4f10e33e8b3cb64d1d11d998d8c554a95e0841fc1c701278bd5d84604051610e739190611a35565b60405180910390a1610ef06040518060400160405280600a81526020017f4c27656e6368c3a8726500000000000000000000000000000000000000000000815250856040518060400160405280601181526020017f7327657374207465726d696ec3a9652021000000000000000000000000000000815250611586565b5b5b5050505b50565b600080600084815260200190815260200160002090508060030160009054906101000a900460ff16610f60576040517f08c379a0000000000000000000000000000000000000000000000000000000008152600401610f579061244f565b60405180910390fd5b80600101805490508210610fa9576040517f08c379a0000000000000000000000000000000000000000000000000000000008152600401610fa090612145565b60405180910390fd5b6000816001018381548110610fc157610fc0612165565b5b906000526020600020906009020190508060060160009054906101000a900460ff1615611023576040517f08c379a000000000000000000000000000000000000000000000000000000000815260040161101a906125a3565b60405180910390fd5b600061102f8585610641565b905080341015611074576040517f08c379a000000000000000000000000000000000000000000000000000000000815260040161106b9061260f565b60405180910390fd5b60018260060160006101000a81548160ff021916908315150217905550338260060160016101000a81548173ffffffffffffffffffffffffffffffffffffffff021916908373ffffffffffffffffffffffffffffffffffffffff1602179055508082600701819055504282600801819055508260000160009054906101000a900473ffffffffffffffffffffffffffffffffffffffff1673ffffffffffffffffffffffffffffffffffffffff166108fc349081150290604051600060405180830381858888f19350505050158015611150573d6000803e3d6000fd5b507f1d2d73acac53232e6aaa5e7d3bfd4c9c01927f87b62749e1b3c7cca334914df685853384604051611186949392919061262f565b60405180910390a16112596040518060400160405280600f81526020017f41727469636c652076656e6475203a00000000000000000000000000000000008152508360000180546111d690611e1a565b80601f016020809104026020016040519081016040528092919081815260200182805461120290611e1a565b801561124f5780601f106112245761010080835404028352916020019161124f565b820191906000526020600020905b81548152906001019060200180831161123257829003601f168201915b50505050506116c1565b82600201548403611391578260020160008154809291906112799061250f565b91905055508260010180549050836002015410156112c65742836001018460020154815481106112ac576112ab612165565b5b906000526020600020906009020160050181905550611390565b60018360030160016101000a81548160ff0219169083151502179055507f45806e512b1f4f10e33e8b3cb64d1d11d998d8c554a95e0841fc1c701278bd5d856040516113129190611a35565b60405180910390a161138f6040518060400160405280600a81526020017f4c27656e6368c3a8726500000000000000000000000000000000000000000000815250866040518060400160405280601181526020017f7327657374207465726d696ec3a9652021000000000000000000000000000000815250611586565b5b5b5050505050565b600160008154809291906113ab9061250f565b919050555033600080600154815260200190815260200160002060000160006101000a81548173ffffffffffffffffffffffffffffffffffffffff021916908373ffffffffffffffffffffffffffffffffffffffff16021790555060008060006001548152602001908152602001600020600201819055506000806000600154815260200190815260200160002060030160006101000a81548160ff0219169083151502179055506000806000600154815260200190815260200160002060030160016101000a81548160ff0219169083151502179055507f5d551e2a2cc977fd8c530317059b4f2d9f504fb82f7dfad736f8d56679bcdfd0600154336040516114b6929190612674565b60405180910390a16114e26040518060600160405280602581526020016127fc60259139600154611625565b565b611580848484846040516024016114fe949392919061269d565b6040516020818303038152906040527f5ab84e1f000000000000000000000000000000000000000000000000000000007bffffffffffffffffffffffffffffffffffffffffffffffffffffffff19166020820180517bffffffffffffffffffffffffffffffffffffffffffffffffffffffff838183161783525050505061175d565b50505050565b61162083838360405160240161159e939291906126f7565b6040516020818303038152906040527f5970e089000000000000000000000000000000000000000000000000000000007bffffffffffffffffffffffffffffffffffffffffffffffffffffffff19166020820180517bffffffffffffffffffffffffffffffffffffffffffffffffffffffff838183161783525050505061175d565b505050565b6116bd828260405160240161163b92919061273c565b6040516020818303038152906040527fb60e72cc000000000000000000000000000000000000000000000000000000007bffffffffffffffffffffffffffffffffffffffffffffffffffffffff19166020820180517bffffffffffffffffffffffffffffffffffffffffffffffffffffffff838183161783525050505061175d565b5050565b61175982826040516024016116d792919061276c565b6040516020818303038152906040527f4b5c4277000000000000000000000000000000000000000000000000000000007bffffffffffffffffffffffffffffffffffffffffffffffffffffffff19166020820180517bffffffffffffffffffffffffffffffffffffffffffffffffffffffff838183161783525050505061175d565b5050565b6117748161176c611777611798565b63ffffffff16565b50565b60006a636f6e736f6c652e6c6f679050600080835160208501845afa505050565b6117a3819050919050565b6117ab6127a3565b565b6000604051905090565b600080fd5b600080fd5b6000819050919050565b6117d4816117c1565b81146117df57600080fd5b50565b6000813590506117f1816117cb565b92915050565b600080fd5b600080fd5b6000601f19601f8301169050919050565b7f4e487b7100000000000000000000000000000000000000000000000000000000600052604160045260246000fd5b61184a82611801565b810181811067ffffffffffffffff8211171561186957611868611812565b5b80604052505050565b600061187c6117ad565b90506118888282611841565b919050565b600067ffffffffffffffff8211156118a8576118a7611812565b5b6118b182611801565b9050602081019050919050565b82818337600083830152505050565b60006118e06118db8461188d565b611872565b9050828152602081018484840111156118fc576118fb6117fc565b5b6119078482856118be565b509392505050565b600082601f830112611924576119236117f7565b5b81356119348482602086016118cd565b91505092915050565b60008060008060008060c0878903121561195a576119596117b7565b5b600061196889828a016117e2565b965050602087013567ffffffffffffffff811115611989576119886117bc565b5b61199589828a0161190f565b95505060406119a689828a016117e2565b94505060606119b789828a016117e2565b93505060806119c889828a016117e2565b92505060a06119d989828a016117e2565b9150509295509295509295565b600080604083850312156119fd576119fc6117b7565b5b6000611a0b858286016117e2565b9250506020611a1c858286016117e2565b9150509250929050565b611a2f816117c1565b82525050565b6000602082019050611a4a6000830184611a26565b92915050565b600060208284031215611a6657611a656117b7565b5b6000611a74848285016117e2565b91505092915050565b600073ffffffffffffffffffffffffffffffffffffffff82169050919050565b6000611aa882611a7d565b9050919050565b611ab881611a9d565b82525050565b60008115159050919050565b611ad381611abe565b82525050565b6000608082019050611aee6000830187611aaf565b611afb6020830186611a26565b611b086040830185611aca565b611b156060830184611aca565b95945050505050565b600081519050919050565b600082825260208201905092915050565b60005b83811015611b58578082015181840152602081019050611b3d565b60008484015250505050565b6000611b6f82611b1e565b611b798185611b29565b9350611b89818560208601611b3a565b611b9281611801565b840191505092915050565b6000610140820190508181036000830152611bb8818d611b64565b9050611bc7602083018c611a26565b611bd4604083018b611a26565b611be1606083018a611a26565b611bee6080830189611a26565b611bfb60a0830188611a26565b611c0860c0830187611aca565b611c1560e0830186611aaf565b611c23610100830185611a26565b611c31610120830184611a26565b9b9a5050505050505050505050565b6000602082019050611c556000830184611aca565b92915050565b7f5365756c206c652076656e646575722070657574206578c3a96375746572206360008201527f6574746520616374696f6e000000000000000000000000000000000000000000602082015250565b6000611cb7602b83611b29565b9150611cc282611c5b565b604082019050919050565b60006020820190508181036000830152611ce681611caa565b9050919050565b7f4c27656e6368c3a8726520657374207465726d696ec3a9650000000000000000600082015250565b6000611d23601883611b29565b9150611d2e82611ced565b602082019050919050565b60006020820190508181036000830152611d5281611d16565b9050919050565b7f496d706f737369626c65206427616a6f75746572206465732061727469636c6560008201527f7320617072c3a873206c652064c3a9627574206465206c27656e6368c3a87265602082015250565b6000611db5604083611b29565b9150611dc082611d59565b604082019050919050565b60006020820190508181036000830152611de481611da8565b9050919050565b7f4e487b7100000000000000000000000000000000000000000000000000000000600052602260045260246000fd5b60006002820490506001821680611e3257607f821691505b602082108103611e4557611e44611deb565b5b50919050565b60008190508160005260206000209050919050565b60006020601f8301049050919050565b600082821b905092915050565b600060088302611ead7fffffffffffffffffffffffffffffffffffffffffffffffffffffffffffffffff82611e70565b611eb78683611e70565b95508019841693508086168417925050509392505050565b6000819050919050565b6000611ef4611eef611eea846117c1565b611ecf565b6117c1565b9050919050565b6000819050919050565b611f0e83611ed9565b611f22611f1a82611efb565b848454611e7d565b825550505050565b600090565b611f37611f2a565b611f42818484611f05565b505050565b5b81811015611f6657611f5b600082611f2f565b600181019050611f48565b5050565b601f821115611fab57611f7c81611e4b565b611f8584611e60565b81016020851015611f94578190505b611fa8611fa085611e60565b830182611f47565b50505b505050565b600082821c905092915050565b6000611fce60001984600802611fb0565b1980831691505092915050565b6000611fe78383611fbd565b9150826002028217905092915050565b61200082611b1e565b67ffffffffffffffff81111561201957612018611812565b5b6120238254611e1a565b61202e828285611f6a565b600060209050601f831160018114612061576000841561204f578287015190505b6120598582611fdb565b8655506120c1565b601f19841661206f86611e4b565b60005b8281101561209757848901518255600182019150602085019450602081019050612072565b868310156120b457848901516120b0601f891682611fbd565b8355505b6001600288020188555050505b505050505050565b60006040820190506120de6000830185611a26565b81810360208301526120f08184611b64565b90509392505050565b7f41727469636c6520696e76616c69646500000000000000000000000000000000600082015250565b600061212f601083611b29565b915061213a826120f9565b602082019050919050565b6000602082019050818103600083015261215e81612122565b9050919050565b7f4e487b7100000000000000000000000000000000000000000000000000000000600052603260045260246000fd5b7f4e487b7100000000000000000000000000000000000000000000000000000000600052601160045260246000fd5b60006121ce826117c1565b91506121d9836117c1565b92508282039050818111156121f1576121f0612194565b5b92915050565b7f4e487b7100000000000000000000000000000000000000000000000000000000600052601260045260246000fd5b6000612231826117c1565b915061223c836117c1565b92508261224c5761224b6121f7565b5b828204905092915050565b6000612262826117c1565b915061226d836117c1565b925082820261227b816117c1565b9150828204841483151761229257612291612194565b5b5092915050565b7f4c27656e6368c3a8726520612064c3a96ac3a020636f6d6d656e63c3a9000000600082015250565b60006122cf601d83611b29565b91506122da82612299565b602082019050919050565b600060208201905081810360008301526122fe816122c2565b9050919050565b7f417563756e2061727469636c6520646973706f6e69626c650000000000000000600082015250565b600061233b601883611b29565b915061234682612305565b602082019050919050565b6000602082019050818103600083015261236a8161232e565b9050919050565b7f41727469636c65206e6f6e2074726f7576c3a900000000000000000000000000600082015250565b60006123a7601383611b29565b91506123b282612371565b602082019050919050565b600060208201905081810360008301526123d68161239a565b9050919050565b7f4c27656e6368c3a87265206e27612070617320656e636f726520636f6d6d656e60008201527f63c3a90000000000000000000000000000000000000000000000000000000000602082015250565b6000612439602383611b29565b9150612444826123dd565b604082019050919050565b600060208201905081810360008301526124688161242c565b9050919050565b7f417563756e2061727469636c6520616374696600000000000000000000000000600082015250565b60006124a5601383611b29565b91506124b08261246f565b602082019050919050565b600060208201905081810360008301526124d481612498565b9050919050565b60006124e6826117c1565b91506124f1836117c1565b925082820190508082111561250957612508612194565b5b92915050565b600061251a826117c1565b91507fffffffffffffffffffffffffffffffffffffffffffffffffffffffffffffffff820361254c5761254b612194565b5b600182019050919050565b7f4365742061727469636c6520612064c3a96ac3a020c3a974c3a92076656e6475600082015250565b600061258d602083611b29565b915061259882612557565b602082019050919050565b600060208201905081810360008301526125bc81612580565b9050919050565b7f466f6e647320696e737566666973616e74730000000000000000000000000000600082015250565b60006125f9601283611b29565b9150612604826125c3565b602082019050919050565b60006020820190508181036000830152612628816125ec565b9050919050565b60006080820190506126446000830187611a26565b6126516020830186611a26565b61265e6040830185611aaf565b61266b6060830184611a26565b95945050505050565b60006040820190506126896000830185611a26565b6126966020830184611aaf565b9392505050565b600060808201905081810360008301526126b78187611b64565b90506126c66020830186611a26565b81810360408301526126d88185611b64565b905081810360608301526126ec8184611b64565b905095945050505050565b600060608201905081810360008301526127118186611b64565b90506127206020830185611a26565b81810360408301526127328184611b64565b9050949350505050565b600060408201905081810360008301526127568185611b64565b90506127656020830184611a26565b9392505050565b600060408201905081810360008301526127868185611b64565b9050818103602083015261279a8184611b64565b90509392505050565b7f4e487b7100000000000000000000000000000000000000000000000000000000600052605160045260246000fdfee29aa0507269782072c3a973657276c3a92061747465696e7420706f7572206c2761727469636c653a4e6f7576656c6c6520656e6368c3a87265206372c3a9c3a9652061766563206c274944203aa264697066735822122098fa3f48499be8d1e36642038874d8ff5c0d0f2e63961f315a833e5aa9573f6764736f6c634300081c0033",
  "linkReferences": {},
  "deployedLinkReferences": {}
}